:020000040800F2
:10000000E005002009020008A51600089D1600085A
:10001000A1160008C90400087118000800000000BB
:100020000000000000000000000000008D17000824
:10003000CD04000800000000A91600089117000870
:1000400023020008230200082302000823020008FC
:1000500023020008230200082302000823020008EC
:1000600023020008230200082302000823020008DC
:1000700023020008230200082302000823020008CC
:1000800023020008230200082302000823020008BC
:1000900023020008230200082302000823020008AC
:1000A000230200082302000823020008230200089C
:1000B000230200082302000823020008230200088C
:1000C000230200082302000823020008230200087C
:1000D0002302000865180008230200082302000814
:1000E000230200082302000823020008230200085C
:1000F000230200082302000823020008230200084C
:10010000230200082302000823020008230200083B
:10011000230200082302000823020008230200082B
:10012000230200082302000823020008230200081B
:1001300000F002F800F058F814A696E8000CB2445B
:10014000B344DA4501D100F04FF8BAE80F000FA62A
:1001500096E83000A5EB040504EB0607AAEB0704BC
:10016000A7F101074FEA15154FEA3414A4F1010471
:10017000AC4201D300F038F813F0010F18BFFB1A9E
:1001800043F0010300F001F8DBE7184720240000EA
:1001900040240000103A24BF78C878C1FAD852072A
:1001A00024BF30C830C144BF04680C6070470000F1
:1001B000704700000023002400250026103A28BFC5
:1001C00078C1FBD8520728BF30C148BF0B607047C9
:1001D000752900F05380782900F0B780002070471F
:1001E0001FB51FBD10B510BDDFF80CD0FFF7F8FF2D
:1001F00001F074FB00F05FF9E005002003B4FFF7A5
:10020000F1FF03BC01F036FB064880470648004773
:10021000FEE7FEE7FEE7FEE7FEE7FEE7FEE7FEE7B6
:10022000FEE7FEE79517000831010008704770B53A
:10023000044685690068C10601D5302600E0202605
:10024000C00707D070BDD4E9012130469047206A2D
:10025000401C20626D1EF6D570BD70B504468569E0
:100260000078C00707D170BDD4E901212020904754
:10027000206A401C20626D1EF6D570BD2DE9F0414C
:100280000646002410687529314616A510D0AFF334
:100290000080002802DA404213A507E031688A078F
:1002A00001D512A502E0490704D511A5012401E0FA
:1002B000AFF3008000210A2206F1240709E0B0FB19
:1002C000F2FCB0FBF2F302FB1C003030785418460D
:1002D000491C0028F3D123462A463046BDE8F041A8
:1002E00000F090B8000000002D0000002B0000007E
:1002F00020000000F0B40D460188090502D5214C0C
:100300007C4402E01F4C7C440E34002100F12406A2
:1003100008E002F00F071209E75D42EA03721B09C9
:100320007754491C52EA0307F3D1027800231207DD
:1003300004D5702D06D009B1022311342246F0BC39
:1003400000F060B801231034F8E770B504460D469C
:1003500021461068AFF30080024629462046BDE8DA
:1003600070400023C6E7D21D22F00703D3E9002323
:10037000C0E70368126843F0200303600823C361E9
:100380000023B7E75622000010B5044603E001F051
:100390009BFA401C09D014F8010B05490028F6D13E
:1003A000BDE810400A2001F08FBA4FF0FF3010BDB9
:1003B000100000204FF0000200B513469446964608
:1003C000203922BFA0E80C50A0E80C50B1F1200168
:1003D000BFF4F7AF090728BFA0E80C5048BF0CC016
:1003E0005DF804EB890028BF40F8042B08BF704774
:1003F00048BF20F8022B11F0804F18BF00F8012BE6
:10040000704770472DE9F0470D46994692460446DD
:1004100000F124080168880604D5E06921F0100184
:10042000216000E00120A84201DD471B00E0002719
:10043000A1697A1902EB0900081AA0612078C006A8
:1004400002D42046FFF7F3FE002608E0D4E901219C
:100450001AF806009047206A401C761C20624E4520
:10046000F4DB2078C0060AD52046FFF7E0FE06E060
:10047000D4E9012130209047206A401C2062381EB8
:10048000A7F10107F4DC07E0D4E9012118F8050021
:100490009047206A401C2062281EA5F10105F3DC6C
:1004A0002046FFF7DAFE2078000602D50220BDE8DC
:1004B000F0870120FBE710B50446AFF3008020462B
:1004C000BDE81040FFF79ABEFEE70000704700004D
:1004D000014690F82100022813D10868D1E90FC322
:1004E000026822F00E020260026822F0010202603D
:1004F000012000FA03F2CCF8042081F8210000204A
:1005000002E0042088630120002281F82020704747
:1005100090F82110022927D1026840F2040C1368D8
:10052000C4F2020C23F00E03136013680CF17C017B
:100530008A4223F0010111601AD940F20841C4F245
:1005400002018A424ED040F21C41C4F202018A42AA
:1005500041D040F23041C4F202018A4246D14FF408
:100560008073CCF8003457E0042181630120704788
:100570004321C4F202018A420EDD6B21C4F2020162
:100580008A421BDC4421C4F202018A423BD058213A
:10059000C4F202018A4222E00821C4F202018A4226
:1005A0002FD01C21C4F202018A4232D03021C4F281
:1005B00002018A4213D14FF480722BE06C21C4F205
:1005C00002018A4222D08021C4F202018A4206D16D
:1005D0004FF080721EE01023CCF800341CE04FF482
:1005E000803217E00123CCF8003415E00CF5886167
:1005F0004FF480338A4208BF4FF48053CCF8003464
:100600000AE0012206E04FF4805203E04FF480122A
:1006100000E01022CCF80020012180F82110416B6D
:100620000022002980F8202004BF0020704780B5F8
:100630008847002080BD00002DE9F04F82B00E6891
:10064000002E00F0E380A0F1804241F6004540F228
:100650000043A2F58432C4F201050624C4F201036A
:100660004FEAB227A84208BF05244FF0000E4FF012
:1006700001080F254FF0000A4FF0000B052F38BF7F
:100680004FEAB224009408E00E680AF1010A36FA33
:100690000AF20EF1040E00F0B98008FA0AFC16EA1C
:1006A0000C09F1D04E684FF6FF72C1F2100296426B
:1006B00010DC122E50D8DFE806F0330A48454F4FC1
:1006C0004F4F4F4F4F4F4F4F4F4F4F414C00D1F86F
:1006D0000CB041E04FF6FF72C1F2210296420FDCEE
:1006E0000022C1F2110296421AD00022C1F2120277
:1006F000964215D00022C1F22102964210D02BE082
:100700000022C1F2220296420AD00022C1F2310236
:10071000964205D00022C1F2320296421CD100BF9F
:100720008A6842B1012A14BFC0F814C0C0F810C0D2
:100730004FF0080B10E04FF0040B0DE0CA6802F117
:10074000040B09E04FF0000B06E0CA6802F1080B49
:1007500002E0CA6802F10C0B02467446B9F5807FCC
:1007600024BF0432203C166805FA04F726EA07077E
:100770000BFA04F637431760CA79D2067FF584AFC7
:1007800041F21807C4F202073A684FF6084542F0F2
:1007900001023A603A68CFF6FF7502F00102019259
:1007A000019A2AF003021A440F2457590EF00C063E
:1007B000B440A743009C04FA06F6374357514E68ED
:1007C00040F20C44F2029A6854BF22EA090242EA5B
:1007D0000902C4F201049A602268B70254BF22EAF7
:1007E000090242EA090222605A68B70354BF22EAAA
:1007F000090242EA09025A600F251A68F70354BF3A
:1008000022EA090242EA09021A603DE702B0BDE8A5
:10081000F08F0000002A08BF090401617047000042
:1008200040F2D810C2F200000068704740F20800A1
:1008300040F2D811C2F20000C2F2000100780A684A
:10084000104408607047000080B542F20000C4F216
:100850000200016841F010010160032000F070F80F
:100860000F2000F005F800F02BF8002080BD0000FC
:10087000B0B540F20802C2F2000240F20401127860
:10088000C2F200014FF47A730968B3FBF2F2044636
:10089000B1FBF2F1084600F03DFC0F2C4FF00105D2
:1008A0000CD858B94FF0FF3021460022002500F047
:1008B0001BF840F20C00C2F2000004602846B0BDF4
:1008C00070470000002848BF704700F01F01012258
:1008D00002FA01F11C2202EAD0004EF20012CEF21E
:1008E000000281507047000010B54EF60C5CCEF24D
:1008F000000CDCF80030C3F3022E8EF00704042C49
:1009000028BF0424BEF103034FF0FF3E0EFA04F4A7
:1009100038BF0023A14399400EFA03F39A431143D1
:1009200000F1604200F00F03090102F56442043B4C
:100930006344002848BF03F10C02117010BD000091
:100940004EF60C51CEF200010A684FF6FF031A4032
:1009500060F30A2242F0806040F0FD70086070474A
:10096000002804BF012070472DE9F04381B042F216
:100970000008C4F202080446D8F800000D4600F052
:10098000070081420CD9D8F8000020F00700284366
:10099000C8F80000D8F8000000F00700A8426BD1AA
:1009A000206841F204098107C4F2020917D5410702
:1009B00005D5D9F8001041F4E061C9F8001001072D
:1009C00005D5D9F8001041F46051C9F80010D9F8E4
:1009D0000010A26821F0F0011143C9F80010C0070F
:1009E00041D1D8F8000000F0070085420CD2D8F8B9
:1009F000000020F007002843C8F80000D8F80000E5
:100A000000F00700A84237D12068410707D5D9F880
:100A10000010E26821F4E0611143C9F800100007FA
:100A200008D5D9F80000216920F4605040EAC100DF
:100A3000C9F80000D9F8002002F00C00082841F2A3
:100A40000020C0F27A0049D142F29C53C2F38341A4
:100A5000C0F60003595CD20334D440F60010C0F253
:100A60003D0048433AE0606859F8041C022807D06A
:100A7000012824D1890305D4012001B0BDE8F08309
:100A80008901F9D5D9F8001021F003010843C9F80C
:100A90000000FFF7C5FE064641F28837D9F800008E
:100AA000616800F00C00B0EB810F9AD0FFF7B8FE40
:100AB000801BB842F2D9032001B0BDE8F08389075A
:100AC000DAD5DFE7D9F8002042F29A53C2F3404268
:100AD000C0F600039A5C4843B0FBF2F0D9F800106E
:100AE00042F28252C1F30311C0F60002515C40F29F
:100AF000040220FA01F140F20C00C2F2000000688A
:100B0000C2F200021160FFF7B3FE002001B0BDE8A1
:100B1000F083000040F2040041F20401C2F2000040
:100B2000C4F202010068096842F29252C1F3022144
:100B3000C0F60002515CC8407047000040F204005B
:100B400041F20401C2F20000C4F202010068096827
:100B500042F29252C1F3C221C0F60002515CC84079
:100B600070470000002804BF012070472DE9F041C4
:100B700082B00446007841F20006C007C4F20206C3
:100B800047D0706800F00C00042808D1306880035A
:100B90003FD56068E8BB012002B0BDE8F081706815
:100BA00000F00C00082802D17068C003EED465681C
:100BB00030682DB1B5F5A02F09D0B5F5803F0AD02A
:100BC00020F480303060306820F4802005E040F46C
:100BD00080203060306840F480303060FFF720FEC5
:100BE000002D054612D000BF3068800311D4FFF7F6
:100BF00017FE401B6428F7D916E100BFFFF710FE6F
:100C0000401B64284FF0030000F2D8803068800356
:100C1000F4D42078800719D5706810F00C0F07D035
:100C2000706800F00C00082827D17068C00324D435
:100C30003068800703D52069012840F0A68030681D
:100C4000616920F0F80040EAC100306020780007B8
:100C50004ED5A06938B30020C4F242200121C0F86B
:100C60008014FFF7DDFD0546706A80072DD4FFF77D
:100C7000D7FD401B0228F7D9D6E02069002840F2B2
:100C80000000C4F2422000F0A88001210160FFF7BB
:100C9000C7FD054630688007D1D4FFF7C1FD401B72
:100CA0000228F7D9C0E00020C4F242200021C0F899
:100CB0008014FFF7B5FD0546706A800718D5FFF769
:100CC000AFFD401B0228F7D9AEE040F20400C2F2AB
:100CD0000000006844F6D351C1F26201A0FB01019B
:100CE000480A019000BF0198411E00280191F9D1E6
:100CF0002078400717D4E5698DB1706800F00C00CA
:100D0000082846D1012D40D07068216A00F4803255
:100D10008A423AD1616A00F47010884235D10020CD
:100D200002B0BDE8F081F0695FEAC00808D4F0695C
:100D300040F08050F061F06900F080500090009821
:100D400047F20007C4F200073868C0050FD43868BE
:100D500040F480703860FFF763FD05463868C005D1
:100D600005D4FFF75DFD401B6428F7D95CE0E5681A
:100D7000306A1DB1052D41D0012D43D020F0010076
:100D80003062306A20F004003EE0012002B0BDE88D
:100D9000F0810027C4F2422700203866FFF740FDAB
:100DA000022D05460ED100BF3068800153D5FFF7F4
:100DB00037FD401B02284FF00300F5D902B0BDE813
:100DC000F08100BF30688001A9D5FFF729FD401BE5
:100DD00002284FF00300F5D9F0E700210160FFF78A
:100DE0001FFD0546306880077FF530AFFFF718FD1F
:100DF000401B02284FF00300F4D9DFE740F0040065
:100E00003062306A40F001003062FFF709FD002DCA
:100E1000054641F2883712D0306A800712D4FFF7B6
:100E2000FFFC401BB842F7D9032002B0BDE8F081B7
:100E3000FFF7F6FC401BB8424FF00300BED8306A03
:100E40008007F5D4B8F1000F3FF555AFF06920F0F9
:100E50008050F0614FE7206AB0F5803F05D171689E
:100E6000A26821F40031114371607168626A21F453
:100E7000741111430843706001203866FFF7D0FCFD
:100E8000044600BF306880013FF549AFFFF7C8FC5A
:100E9000001B02284FF00300F4D98FE7002804BF9D
:100EA00001207047416A19B100210161142104E059
:100EB0004168B1F5827F02D01C210022425010B55A
:100EC00090F8511031B9002180F85010044600F01C
:100ED00045F82046022180F8511090E80E1002F4E7
:100EE00082720C6803F4044324F040040C6004692B
:100EF0001A440CF400631A4404F0020344691A44CF
:100F000004F00103D0F818E002EB030CC2690EF400
:100F100000739C4402F03802036A9444826A03F02E
:100F2000800343EA0C0302F4005423430B600423C0
:100F300003EA1E434B60B2F5005F04BF828D0A6175
:100F4000CA6922F40062CA6100210122416580F869
:100F50005120BDE81040084670470000704700006F
:100F60002DE9F04182B0044690F85000012803D1E9
:100F7000022002B0BDE8F08101201D460F46164652
:100F800084F85000FFF74CFC94F85110012968D107
:100F90008046002F4FF0010018BF002E62D00320C2
:100FA00084F85100002060652763A686E686A0636A
:100FB000A087E087A2683146B2F5004FC4E910006F
:100FC00008D12068026822F040020260026842F400
:100FD00080420260A06AB0F5005F08D12068026814
:100FE00022F400520260026842F40052026020685B
:100FF0000268520603D4026842F04002026062684E
:101000000139E368B2FA82F2B1FA81F15209490971
:10101000B3F5006F41EA02012AD131B137F8021B62
:10102000C1602763E08E0138E086E08E002846D05C
:101030006F1C09E0216B31F8022BC2602163E08E46
:101040000138E086E08ED0B3206881688907F1D44A
:10105000FFF7E6FB002FF5D0A0EB0800A842F1D384
:101060002BE00220002184F8501002B0BDE8F0818E
:1010700039B139780173206B01302063E08E01387B
:10108000E086E08ED8B16F1C0BE000BF216B0978C1
:101090000173206B01302063E08E0138E086E08E22
:1010A00068B1206881688907F0D4FFF7B9FB002F89
:1010B000F5D0A0EB0800A842F1D3032026E0A06AF7
:1010C000B0F5005F04D12068016841F480510160EF
:1010D0002046802100222B46CDF8008000F0E6FA61
:1010E00028B1606D40F02000606520206065A06838
:1010F00038B9002001902068C16801918068019092
:101100000198606D08B10120ACE70020012184F84E
:101110005110A7E7411E0020B0EB116F1CBF01204A
:1011200070474EF21002CEF2000251604EF623518B
:10113000CEF20001F0230B70072190601160704720
:101140007047000070470000B0B582B001680A68BF
:10115000CC684B6902F02F05202D04F0200505D145
:1011600025B102B0BDE8B04000F01CBB5FEA027CD4
:101170001EBF03F0010E04F4907313EB0E0340D175
:10118000036BD50618D5012B16D114F0100313D01C
:10119000002201920A6801924A680192019A496903
:1011A000490647D4818DC28DC38D002B18BF914253
:1011B00040F0108102B0B0BD13062AD514F08003B0
:1011C00027D090F84120212AF4D18268B2F5805FBF
:1011D00003D10269002A00F03081026A531C0362C5
:1011E00012784A60C28C013A1304C284E2D1C86802
:1011F00020F08000C860C86840F04000C86002B0BD
:10120000B0BDD10718BF14F480715CD1510760D410
:1012100066E05206CED514F04002CBD0CA6822F068
:101220004002CA60202180F8411002B0BDE8B04001
:1012300000F032BAC16B0A68526893B2002BB9D081
:10124000858DAB42B6D2C2858969202934D000BFD2
:10125000016851E8031F026821F4807142E803131A
:10126000002BF5D1016851E8051F026821F001014A
:1012700042E80513002BF5D1016851E8051F02680B
:1012800021F0400142E80513002BF5D1202180F820
:1012900042100021016300BF016851E8031F02688A
:1012A00021F0100142E80313002BF5D1C16B044675
:1012B0000846FFF70DF9204602214163818DC28D5A
:1012C000891A89B2AFE0416C41F0010141645107D4
:1012D00006D5BEF1000F03D0416C41F0020141641C
:1012E000910706D5BEF1000F03D0416C41F0040117
:1012F0004164BCF1000F06D55EEA050103D0416CE4
:1013000041F008014164416C00293FF453AF91065C
:1013100004D51DB1044600F045FA2046016849692C
:10132000426C01F0400102F0080289184BD000BF66
:10133000016851E8031F026821F4907142E8031329
:10134000002BF5D1016851E8051F026821F0010169
:1013500042E80513002BF5D1016B01290AD100BF2A
:10136000016851E8031F026821F0100142E80313ED
:10137000002BF5D1202180F8421000210163016883
:101380004969490654D500BF016851E8051F026844
:1013900021F0400142E80513002BF5D1C16B002973
:1013A00046D041F29972C0F60002044608464A63EC
:1013B000FFF7AEF800283FF4FDAEE06B416B02B0E2
:1013C000BDE8B04008470446FFF7BCFE002060645B
:1013D00002B0B0BD891A00BF026852E8032F03684B
:1013E00022F4907243E80325002DF5D1026852E8FB
:1013F000052F036822F0010243E80525002DF5D1F1
:10140000202280F842200022026300BF026852E8D6
:10141000032F036822F0100243E80325002DF5D1C5
:10142000022289B2426302B0BDE8B040FFF788BE35
:1014300002B0BDE8B040FFF785BE026A32F8023B59
:101440006FF35F234B600262CCE60000002804BF0C
:101450000120704710B5044690F8410028B90020DB
:1014600084F84000204600F061F8242084F8410010
:101470002068D4E90212C36823F40053C3600369EF
:1014800023F440531A430261D4E904231143C26890
:10149000194341F20C639A431143C1604169A26947
:1014A00021F44071114343F60002C4F2010290425C
:1014B000416102D0FFF72EFB01E0FFF73FFBD4E9CB
:1014C0000023192148439900B0FBF1F048F21F5C5A
:1014D000C5F2EB1CA0FB0C314FF69C734909C0F61A
:1014E000FF7301FB0300322303EB0010A0FB0C038E
:1014F000F02000EA531000EB0110C3F3431108443D
:1015000090601069202120F490401061506920F013
:101510002A005061D06840F40050D0600020606420
:1015200084F8411084F84210606310BDB0B584B0F7
:1015300040F60004C4F20104006804F540518842FA
:1015400001D004B0B0BD41F21800C4F2020001683D
:101550006D4641F004010160016801F00401009151
:101560000099016841F004010160016801F0040183
:1015700000910099016841F48041016000682946AA
:1015800000F48040009000984FF40070009002201A
:10159000019001200290032003902046FFF74CF8B1
:1015A0004FF4806000900020019020462946FFF70C
:1015B00043F82520FFF786F9252003210322FFF7B2
:1015C00093F904B0B0BD000090F84230202B07D151
:1015D00000294FF0010318BF002A04D118467047B4
:1015E000022318467047002303638162222182850B
:1015F000C285436480F84210016921B10168CA685C
:1016000042F48072CA600068416941F001014161A1
:10161000C16841F02001C16018467047006843F678
:101620000001C4F20101884218BF704740F27C10EB
:10163000C2F20000B0F90010002921D440F2680283
:10164000C2F2000289B21378B1F5804F04D20D2B9B
:101650000CD141F4804212E048F2000C0022CFF697
:10166000FF7C0A2B08BF41EA0C0208E040F2B402FA
:10167000C2F2000253544A1CC62988BF00220280CD
:1016800040F26C0040F26801C2F20000C2F20001B8
:101690000122FFF799BF000070470000FEE700003D
:1016A000FEE7000070470000704700002DE9F0479A
:1016B00082B00A9C984615460E468146FFF7B0F860
:1016C000201A00EB0804FFF7ABF840F20401C2F265
:1016D00000010968C1F3CB3161430191D9F80010D1
:1016E00089683140891BB1FA81F149098D4203D1E2
:1016F000002002B0BDE8F087824608F1010709E04A
:10170000D9F8000080683040801BB0FA80F04009B2
:101710008542EDD0002FF3D0FFF782F8A0EB0A004E
:10172000A04207D201980199002808BF0446481E2C
:101730000190E5E7D9E900014268B1F5827F22F026
:10174000E00242600BD1D9F80810B1F5004F02D089
:10175000B1F5806F03D1016821F040010160D9F833
:101760002810B1F5005F07D1016821F40051016034
:10177000016841F400510160012089F85100002006
:1017800089F85000032002B0BDE8F08770470000E0
:10179000FFF74CB870470000406A0021C185C18442
:1017A000FFF7D0BC90F84210222918BF704782681A
:1017B000B2F5805F02D1016900294AD0816AB2F591
:1017C000805F07D00AB9026922B10268526802F04C
:1017D0007F0201E0026852680A70816A0131816209
:1017E000C18D01390A04C18500D070470168CA68FB
:1017F00022F02002CA60CA6822F48072CA604A6974
:1018000022F001024A61202180F842100021416348
:10181000026B012A18BFFFF701BF81B0016300BF4F
:10182000016851E8031F026821F0100142E8031328
:10183000002BF5D101680A68D20606D50022009275
:101840000A680092496800910099818D01B0FFF704
:1018500077BC0168826A49686FF35F2122F8021B36
:101860008262BDE740F26C00C2F20000FFF76CBC80
:10187000FEE700007047000040F26401C2F2000180
:101880000860704780B54EF2180140F26402CEF253
:101890000001C2F2000251F804CC12680023504348
:1018A0004FF47A7200FB02FE086800BF0A688242A9
:1018B000FCD003449B1A824228BF63447345104600
:1018C00028BF80BDF2E7000043F60001C4F2010129
:1018D0000A685206FCD5C2B24A607047FEF7B4FFF0
:1018E0004FF4E01000F0ECFD4820FFF7C5FF4FF487
:1018F000E13000F013FE00F00BF94FF6FF7000F03E
:10190000EDF84FF4784000F0E9F84FF6205000F081
:10191000E5F84FF6E07000F0E1F84FF4FC6000F0FD
:10192000DDF81F2000F0DAF844F6100000F0D6F8D9
:1019300049F21F1000F0D2F8002000F0CFF800BFED
:10194000FEE700002DE9F04F85B041F21800C4F227
:101950000200416840F6004B41F48041416041681B
:10196000C4F2010B01F480410191019901680DF16C
:10197000040941F0080101600168012601F0080135
:101980000191019901684FF0080841F020010160C0
:101990000068002700F02000019001984FF0030A32
:1019A000584649460296CDF804800397CDF810A01A
:1019B000FEF742FE584608210122FEF72BFF0BF5E9
:1019C000006502242846494602960194CDE9036A3F
:1019D000FEF732FE4FF400500190584649460294FB
:1019E000CDE9036AFEF728FE4FF400400190584607
:1019F00049460294CDE9037AFEF71EFE4FF480407B
:101A000001905846494602940396FEF715FE284673
:101A10004946CDE90146CDE9036AFEF70DFE4FF4D4
:101A200080500190584649460296CDE9036AFEF778
:101A300003FE40F28016ABF55440C2F200064FF4AC
:101A400082714FF4007286E88300C6E90572584639
:101A50004FF480510122C6E90377C6E90787C6E93A
:101A60000977F762FEF7D6FE284604210122FEF729
:101A7000D1FE284602210122FEF7CCFE3046FFF7B8
:101A80000DFA10B102A0FEF77FFC05B0BDE8F08FA3
:101A900053504920496E6974204572726F720D006F
:101AA00080B582B08DF8070040F28010C2F20000CD
:101AB0000DF1070101224FF4FA73FFF751FA10B14B
:101AC00002A0FEF761FC02B080BD00BF4572726FDC
:101AD000725F48616E646C65720D000070B50446FB
:101AE00000200021F0224FF48C73002500F0FCFB55
:101AF000002600BF204600F0A9FCB6F58B7F06F15A
:101B00000106F7D9EF2D05F1010528BF70BDEFE7FC
:101B1000B0B5FFF717FF6420FFF7B4FE40F60044AE
:101B2000C4F20104204620210122FEF773FE642046
:101B3000FFF7A8FE204620210022FEF76BFE64205E
:101B4000FFF7A0FE204620210122FEF763FE64205D
:101B5000FFF798FE04F50065284602210022FEF7F3
:101B600059FE20464FF480510022FEF753FE3620E6
:101B7000FFF796FF284602210122FEF74BFE204682
:101B80004FF480510022FEF745FE0020FFF788FF4A
:101B9000BDE8B040AFF30080B0B540F60044C4F2F9
:101BA000010404F50065284602210022FEF732FEFA
:101BB00020464FF480510022FEF72CFE3620FFF71E
:101BC0006FFF284602210122FEF724FE20464FF433
:101BD00080510022FEF71EFE0020FFF761FF28461D
:101BE00002210022FEF716FE20464FF4805100220B
:101BF000FEF710FE3A20FFF753FF2846022101228C
:101C0000FEF708FE20464FF480510022FEF702FE48
:101C10000520FFF745FF284602210022FEF7FAFDC6
:101C200020464FF480510022FEF7F4FDB220FFF76A
:101C300037FF284602210122FEF7ECFD20464FF433
:101C400080510022FEF7E6FD0B20FFF729FF284612
:101C500002210122FEF7DEFD20464FF480510022D2
:101C6000FEF7D8FD0B20FFF71BFF284602210122BB
:101C7000FEF7D0FD20464FF480510022FEF7CAFD4A
:101C80000020FFF70DFF284602210122FEF7C2FDCA
:101C900020464FF480510022FEF7BCFD3320FFF7B1
:101CA000FFFE284602210122FEF7B4FD20464FF434
:101CB00080510022FEF7AEFD3520FFF7F1FE2846E9
:101CC00002210022FEF7A6FD20464FF4805100229B
:101CD000FEF7A0FDB720FFF7E3FE28460221012210
:101CE000FEF798FD20464FF480510022FEF792FD4A
:101CF0001120FFF7D5FE284602210022FEF78AFDBB
:101D000020464FF480510022FEF784FDBB20FFF7F0
:101D1000C7FE284602210122FEF77CFD20464FF433
:101D200080510022FEF776FD3520FFF7B9FE2846E8
:101D300002210022FEF76EFD20464FF48051002262
:101D4000FEF768FDC020FFF7ABFE28460221012206
:101D5000FEF760FD20464FF480510022FEF75AFD49
:101D60002C20FFF79DFE284602210022FEF752FD9F
:101D700020464FF480510022FEF74CFDC220FFF7B1
:101D80008FFE284602210122FEF744FD20464FF433
:101D900080510022FEF73EFD0120FFF781FE28461C
:101DA00002210022FEF736FD20464FF4805100222A
:101DB000FEF730FDC320FFF773FE28460221012203
:101DC000FEF728FD20464FF480510022FEF722FD49
:101DD0000D20FFF765FE284602210022FEF71AFDBE
:101DE00020464FF480510022FEF714FDC420FFF777
:101DF00057FE284602210122FEF70CFD20464FF433
:101E000080510022FEF706FD2020FFF749FE2846FC
:101E100002210022FEF7FEFC20464FF480510022F2
:101E2000FEF7F8FCC620FFF73BFE28460221012200
:101E3000FEF7F0FC20464FF480510022FEF7EAFC4A
:101E40001320FFF72DFE284602210022FEF7E2FCB8
:101E500020464FF480510022FEF7DCFCD020FFF733
:101E60001FFE284602210122FEF7D4FC20464FF433
:101E700080510022FEF7CEFCA420FFF711FE284679
:101E800002210122FEF7C6FC20464FF480510022B9
:101E9000FEF7C0FCA120FFF703FE28460221002226
:101EA000FEF7B8FC20464FF480510022FEF7B2FC4A
:101EB000D620FFF7F5FD284602210122FEF7AAFCF5
:101EC00020464FF480510022FEF7A4FCA120FFF72A
:101ED000E7FD284602210022FEF79CFC20464FF435
:101EE00080510022FEF796FCE020FFF7D9FD28463E
:101EF00002210122FEF78EFC20464FF48051002281
:101F0000FEF788FCF020FFF7CBFD284602210122D6
:101F1000FEF780FC20464FF480510022FEF77AFC49
:101F20000620FFF7BDFD284602210122FEF772FCC4
:101F300020464FF480510022FEF76CFC0B20FFF787
:101F4000AFFD284602210122FEF764FC20464FF433
:101F500080510022FEF75EFC0A20FFF7A1FD284613
:101F600002210122FEF756FC20464FF48051002248
:101F7000FEF750FC0920FFF793FD284602210122BD
:101F8000FEF748FC20464FF480510022FEF742FC49
:101F90002620FFF785FD284602210122FEF73AFCA4
:101FA00020464FF480510022FEF734FC2920FFF731
:101FB00077FD284602210122FEF72CFC20464FF433
:101FC00080510022FEF726FC3320FFF769FD2846EA
:101FD00002210122FEF71EFC20464FF48051002210
:101FE000FEF718FC4120FFF75BFD28460221012285
:101FF000FEF710FC20464FF480510022FEF70AFC49
:102000001820FFF74DFD284602210122FEF702FCB1
:1020100020464FF480510022FEF7FCFB1620FFF70C
:102020003FFD284602210122FEF7F4FB20464FF433
:1020300080510022FEF7EEFB1520FFF731FD284608
:1020400002210122FEF7E6FB20464FF480510022D8
:10205000FEF7E0FB2920FFF723FD2846022101229D
:10206000FEF7D8FB20464FF480510022FEF7D2FB4A
:102070002D20FFF715FD284602210022FEF7CAFB9E
:1020800020464FF480510022FEF7C4FBE120FFF709
:1020900007FD284602210122FEF7BCFB20464FF433
:1020A00080510022FEF7B6FBF020FFF7F9FC28462E
:1020B00002210122FEF7AEFB20464FF480510022A0
:1020C000FEF7A8FB0420FFF7EBFC284602210122C3
:1020D000FEF7A0FB20464FF480510022FEF79AFB4A
:1020E0000820FFF7DDFC284602210122FEF792FBC3
:1020F00020464FF480510022FEF78CFB0820FFF7AA
:10210000CFFC284602210122FEF784FB20464FF433
:1021100080510022FEF77EFB0720FFF7C1FC284616
:1021200002210122FEF776FB20464FF48051002267
:10213000FEF770FB0320FFF7B3FC284602210122C3
:10214000FEF768FB20464FF480510022FEF762FB49
:102150002820FFF7A5FC284602210122FEF75AFBA2
:1021600020464FF480510022FEF754FB3220FFF747
:1021700097FC284602210122FEF74CFB20464FF433
:1021800080510022FEF746FB4020FFF789FC2846DD
:1021900002210122FEF73EFB20464FF4805100222F
:1021A000FEF738FB3B20FFF77BFC2846022101228B
:1021B000FEF730FB20464FF480510022FEF72AFB49
:1021C0001920FFF76DFC284602210122FEF722FBB1
:1021D00020464FF480510022FEF71CFB1820FFF729
:1021E0005FFC284602210122FEF714FB20464FF433
:1021F00080510022FEF70EFB2A20FFF751FC2846F3
:1022000002210122FEF706FB20464FF480510022F6
:10221000FEF700FB2E20FFF743FC28460221002298
:10222000FEF7F8FA20464FF480510022FEF7F2FA4A
:10223000E420FFF735FC284602210122FEF7EAFAE6
:1022400020464FF480510022FEF7E4FA2520FFF7E4
:1022500027FC284602210122FEF7DCFA20464FF433
:1022600080510022FEF7D6FA0020FFF719FC28461D
:1022700002210122FEF7CEFA20464FF480510022BF
:10228000FEF7C8FA0020FFF70BFC284602210022C7
:10229000FEF7C0FA20464FF480510022FEF7BAFA4A
:1022A0002120FFF7FDFB284602210022FEF7B2FAAB
:1022B00020464FF480510022FEF7ACFA1120FFF7C0
:1022C000EFFB7820FFF7DEFA284602210022FEF716
:1022D000A1FA20464FF480510022FEF79BFA2920F4
:1022E000BDE8B040FFF7DCBB2DE9F04740F6004405
:1022F000C4F2010404F50065924689460746284663
:10230000022100229846FEF785FA20464FF48051BC
:102310000022FEF77FFA2A20FFF7C2FB284602219F
:1023200001223E0AFEF776FA20464FF48051002241
:10233000FEF770FA3046FFF7B3FB28460221012270
:10234000FEF768FA20464FF480510022FEF762FA49
:10235000F8B2FFF7A5FB284602210122AAF10106E7
:10236000FEF758FA20464FF480510022FEF752FA49
:10237000C6F30720FFF794FB284602210122FEF74F
:1023800049FA20464FF480510022FEF743FAF0B29A
:10239000FFF786FB284602210022FEF73BFA204683
:1023A0004FF480510022FEF735FA2B20FFF778FB1F
:1023B00028460221012209F11406FEF72BFA2046D5
:1023C0004FF480510022FEF725FAC6F30720FFF7ED
:1023D00067FB284602210122FEF71CFA20464FF433
:1023E00080510022FEF716FAF0B2FFF759FB28469B
:1023F0000221012208F11306FEF70CFA20464FF4E1
:1024000080510022FEF706FAC6F30720FFF748FBCB
:10241000284602210122FEF7FDF920464FF48051A3
:102420000022FEF7F7F9F0B2FFF73AFB2846022147
:102430000022FEF7EFF920464FF480510022FEF70C
:10244000E9F92C20BDE8F047FFF72ABBF0B581B0D1
:1024500040F60044C4F2010404F500660546304627
:1024600002210122FEF7D6F920464FF480510022C6
:10247000FEF7D0F93046022101222F0AFEF7CAF9F1
:1024800020464FF480510022FEF7C4F93846FFF78A
:1024900007FB304602210122FEF7BCF920464FF42B
:1024A00080510022FEF7B6F9E8B2FFF7F9FA2046AC
:1024B0004FF48051012201B0BDE8F040FEF7AAB907
:1024C000F0B58FB005AD044628462821FDF772FF10
:1024D0000120002605904FF480300227CDE9060642
:1024E000CDE90C7028460496CDE90266CDE9006678
:1024F0000E94FEF737FB00B1FEE70F20CDE9000791
:102500004FF48060CDE90306684602210296FEF78B
:1025100027FA00B1FEE70FB0F0BD000010B540F2A1
:102520006C0443F60001C2F20004C4F2010100226F
:102530000C23C4E900102046C4E90222C4E90423A4
:10254000A261FEF783FF40F26801C2F2000120465B
:102550000122BDE81040FFF737B83031323334354F
:1025600036373839414243444546403058003031CF
:1025700032333435363738396162636465664030EA
:1025800078000000000000000000010203040607BC
:10259000080900000000010203040102020304050F
:1025A000060708090A0B0C0D0E0F1010CC250008A9
:1025B000000000201000000094010008DC25000845
:1025C00010000020D0050000B40100080100000048
:0C25D0000024F4000100000010000000D6
:0400000508000209E4
:00000001FF
