:020000040800F2
:1000000068230020A50200084D2C0008452C00089C
:10001000492C00081D150008C52E0008000000002E
:10002000000000000000000000000000E12D0008BA
:100030002D15000800000000512C0008E52D0008D7
:10004000BF020008BF020008BF020008BF0200088C
:10005000BF020008BF020008BF020008BF0200087C
:10006000BF020008BF020008BF020008BF0200086C
:10007000BF020008BF020008BF02000821150008E7
:10008000BF020008BF020008BF020008BF0200084C
:10009000BF020008BF020008BF020008BF0200083C
:1000A000BF020008BF020008BF020008BF0200082C
:1000B000BF020008BF020008BF020008BF0200081C
:1000C000BF020008BF020008BF020008BF0200080C
:1000D000BF020008B92E0008BF020008BF020008D6
:1000E000BF020008BF020008BF020008BF020008EC
:1000F000BF020008BF020008BF020008BF020008DC
:10010000BF020008BF020008BF020008BF020008CB
:10011000BF020008BF020008BF020008BF020008BB
:10012000BF020008BF020008BF020008BF020008AB
:1001300000F002F800F0A6F814A696E8000CB2440D
:10014000B344DA4501D100F09DF8BAE80F000FA6DC
:1001500096E83000A5EB040504EB0607AAEB0704BC
:10016000A7F101074FEA15154FEA3414A4F1010471
:10017000AC4201D300F086F813F0010F18BFFB1A50
:1001800043F0010300F001F8DBE71847CC5202000E
:10019000EC520200103A24BF78C878C1FAD852074E
:1001A00024BF30C830C144BF04680C6070470000F1
:1001B000704700000023002400250026103A28BFC5
:1001C00078C1FBD8520728BF30C148BF0B607047C9
:1001D0006E2900F00E83702900F03981662904F041
:1001E0001D82652904F01A82672904F017826129AB
:1001F00004F0168203681B0A28BF41F080016929B8
:1002000000F0AA80642900F0A780752900F0A4807E
:100210006F2900F0DF83782900F00581E92900F0DB
:100220007983E42900F07683F52900F07383EF29C0
:1002300000F0DC83F82900F004810368DB0928BFA3
:1002400041F08001632900F0E987732900F0EE870F
:10025000E32900F0F987F32900F0FE8700207047BA
:100260001FB501F04FF804000020002104F0C0F990
:10027000401C60600020002104F0A4F9E0601FBD74
:1002800010B510BD01F010F81146FFF7E9FF02F0BC
:10029000B3FE01F0EDF803B4FFF7F2FF03BC01F089
:1002A00035F900000948804709480047FEE7FEE7A6
:1002B000FEE7FEE7FEE7FEE7FEE7FEE7FEE7FEE716
:1002C00004480549054A064B70470000E92D00081F
:1002D0003101000868010020682300206803002025
:1002E000680300201CB50C46064B7B446946009011
:1002F000204600F098FA04460020694600F0A6FA6D
:1003000020461CBD5F05000070B504468569006885
:10031000C10601D5302600E02026C00707D070BDF9
:10032000D4E9012130469047206A401C20626D1EAE
:10033000F6D570BD70B5044685690078C00707D151
:1003400070BDD4E9012120209047206A401C206222
:100350006D1EF6D570BD00002DE9F0410646002463
:1003600010687529314616A510D000F0AEF90028A6
:1003700002DA404213A507E031688A0701D512A5C9
:1003800002E0490704D511A5012401E000F0A6F917
:1003900000210A2206F1240709E0B0FBF2FCB0FBC1
:1003A000F2F302FB1C00303078541846491C002838
:1003B000F3D123462A463046BDE8F04100F0C0B9EB
:1003C000000000002D0000002B00000020000000B5
:1003D000F0B40D460188090502D5214C7C4402E0A9
:1003E0001F4C7C440E34002100F1240608E002F08A
:1003F0000F071209E75D42EA03721B097754491C93
:1004000052EA0307F3D102780023120704D5702DB6
:1004100006D009B1022311342246F0BC00F090B995
:1004200001231034F8E770B504460D4621461068E4
:1004300000F054F9024629462046BDE870400023EA
:10044000C6E7D21D22F00703D3E90023C0E7036803
:10045000126843F0200303600823C3610023B7E759
:10046000444200002DE9F05F894604464FF0000A3F
:10047000DFF874B1FB44C0F820A02046E16888474B
:10048000002874D0252806D0D4E901219047206A9D
:10049000401C2062F1E700265F462046E16888475D
:1004A0002028054607DB312D05D2781910F8200CDD
:1004B00008B10643F1E7B00701D526F00406C4F8F9
:1004C0001CA00027C4F818A02A2D09D0284604F043
:1004D00071F838B304EB8708303DC8F8185019E0BC
:1004E00059F8041B204604EB87029161E1688847B4
:1004F000012F054618D1E069002820DA26F02006F1
:100500001DE0D8F8180000EB800005EB4000303803
:10051000C8F818002046E1688847054604F04AF804
:100520000028EED1012F0AD02E2D08D12046E168F7
:1005300088477F1C0546022F46F02006C4DBA069D1
:10054000002803DA404246F00106A061F00701D01E
:1005500026F010066C2D0BD0682D09D04C2D39D00B
:100560006A2D35D0742D35D07A2D33D016E038E091
:10057000E1682F4620468847B842054609D16C2FCE
:1005800026D04FF48060E168064320468847054640
:1005900004E06C2F1AD04FF4807006430DB3A5F120
:1005A0004100192802D8203546F400664A462946FB
:1005B000204626604E46FFF70BFE80B101280BD087
:1005C000F61D26F0070000F1080956E74020E4E791
:1005D0008020D8E70020D6E706F104094DE7284639
:1005E00052E7206ABDE8F09FD4410000032A40F2A0
:1005F000308010F0030C00F0158011F8013BBCF1C5
:10060000020F624498BF11F801CB00F8013B38BFDC
:1006100011F8013BA2F1040298BF00F801CB38BFEA
:1006200000F8013B11F0030300F0EA81083AC0F042
:10063000088051F8043B083A51F804CBA0E80810B0
:10064000F5E7121D5CBF51F8043B40F8043BAFF3E3
:100650000080D20724BF11F8013B11F801CB48BF3D
:1006600011F8012B24BF00F8013B00F801CB48BF73
:1006700000F8012B70474FF0000200B51346944676
:100680009646203922BFA0E80C50A0E80C50B1F1EA
:100690002001BFF4F7AF090728BFA0E80C5048BFFE
:1006A0000CC05DF804EB890028BF40F8042B08BF9C
:1006B000704748BF20F8022B11F0804F18BF00F898
:1006C000012B704770477047704709684A0501D58C
:1006D00040B27047C905FCD500B2704709684A05A9
:1006E00001D5C0B27047C905FCD580B2704770B55E
:1006F0000C460546012A05D02878800600D5EA690F
:10070000002302E0012305E05B1C934202D2E05C7F
:100710000028F9D1A869E618C01AA861286A184407
:1007200028622846FFF7F0FD04E0D5E9012114F81E
:10073000010B9047B442F8D32846FFF7FBFD70BD8C
:100740002DE9F0470D4699469246044600F12408EB
:100750000168880604D5E06921F01001216000E0FD
:100760000120A84201DD471B00E00027A1697A199A
:1007700002EB0900081AA0612078C00602D42046C6
:10078000FFF7C2FD002608E0D4E901211AF80600AF
:100790009047206A401C761C20624E45F4DB20788E
:1007A000C0060AD52046FFF7AFFD06E0D4E90121D7
:1007B00030209047206A401C2062381EA7F10107B4
:1007C000F4DC07E0D4E9012118F805009047206A1D
:1007D000401C2062281EA5F10105F3DC2046FFF72E
:1007E000A9FD2078000602D50220BDE8F08701208F
:1007F000FBE711680268006A530501D508700AE03A
:10080000D30501D5088006E0130603D5C217C1E958
:10081000000200E0086001207047000001694A1CE6
:1008200002610878704700B58FB0CDE90131002131
:10083000059105497944CDE9031011466846FFF753
:1008400011FE0FB000BD0000E5FFFFFF0A6802F8CF
:10085000010B0A60704700002DE9FF5F15468A46CC
:100860000446DFF8AC80F8440027D8E900103E4683
:10087000CDE9001010E03AF816106A4602A800F020
:10088000EFFC411C07D02178890603D5E2693918AD
:1008900091420DD80744761C2078800602D5E06985
:1008A000B84205DDAE42E6DB3AF816000028E2D198
:1008B000A069C01BA0612046FFF726FDD8E9001003
:1008C000CDE90010002017E03AF818106A4602A897
:1008D00000F0C6FCB0F1FF3F81460BD000250DF1C2
:1008E000080B05E0D4E901211BF8050090476D1CB9
:1008F0004D45F7D308F10100B0428046E4DB206AA1
:10090000384420622046FFF715FDBDE8FF9F000038
:10091000F63D00002DE9F0418046D21D22F007028D
:100920000025D2E90002F52915A614D0011E72F1A6
:10093000000106DA0023D0EB030063EB020211A6EC
:1009400008E0D8F800108B0701D50FA602E0490790
:1009500001D50EA601251146002408F1240704E064
:1009600000F080F830323A55641C50EA0102F7D1A9
:100970002B46324621464046BDE8F041FFF7E0BE37
:10098000000000002D0000002B00000020000000EF
:1009900030B4002100F1240408E002F00705D20879
:1009A000303542EA4372DB086554491C52EA0305BC
:1009B000F3D10468002310A2250708D504F0200411
:1009C0000C4304D0C46901230CA2641EC46130BC72
:1009D000FFF7B6BE10B5044621461068FFF77EFE4D
:1009E00002462046BDE810400023D1E7D21D22F088
:1009F0000701D1E90023CBE7000000003000000030
:100A000010B5203AC0F00B80B1E81850A0E818509B
:100A1000B1E81850A0E81850203ABFF4F5AF5FEAEB
:100A2000027C24BFB1E81850A0E8185044BF18C990
:100A300018C0BDE810405FEA827C24BF51F8043B37
:100A400040F8043B08BF7047D20728BF31F8023B8B
:100A500048BF11F8012B28BF20F8023B48BF00F81F
:100A6000012B704730B5B0F10A0271F100034FEA73
:100A7000900E4EEA817EB0EB0E0061EB91014FEAE1
:100A8000101E4EEA017E10EB0E0041EB11114FEAF1
:100A9000102E4EEA016E10EB0E0041EB11214FEAD1
:100AA000104E4EEA014E10EB0E0041EB1141401882
:100AB00041F100014FEAD00040EA41704FEAD10114
:100AC0004FEA810444EA907410EB800544EB010482
:100AD0006D1944EB0404521BA3414FF0000348BFBF
:100AE0000A3200D530BD401C41F1000130BD2DE976
:100AF000FF4F0C461E464FF0FF378BB0D2E9000186
:100B0000DDF860800A908A46C1F30A5505B93D4672
:100B1000002108464FF00000BAF1000F00F4400039
:100B200005DA00EB80004FF4400101EA50004FEA83
:100B30009059B9F1010F00DDB9460A9850EA4A0010
:100B40000ED044F61050A5F2FF3545432F14B8F1EE
:100B5000000F1ED07542291E1EDDC9F100021CE0E7
:100B6000B8F1010F4FF0000001D0302103E0F24353
:100B700005E02154401CB042FBDB3046002200213E
:100B800021540B99C1F80880C1E900200FB0BDE8DD
:100B9000F08FBD1B6D1CDEE74A4600DA694206A8ED
:100BA00000F0F4FB06AB93E8070003AB83E8070013
:100BB00050460A9903F021F98DE80700A0F500508E
:100BC0001F3800900398002D0ADD42F21F014A46AB
:100BD0000844002303A90390684603F08BFB09E057
:100BE000A0F500504A461F38002303A90390684629
:100BF00003F095FB8DE807000004000C03D04FF0D4
:100C0000FF30410800E01046B8F1000F03D0002289
:100C1000009215461EE0751E05D4FFF723FF303203
:100C200062556D1EF9D5B3460122084302D0002259
:100C30007F1C04E02078302801D100227F1E002A8A
:100C4000099784D01DE0112D07DAFFF70BFF303232
:100C500062556D1C50EA0102F5D1084302D000989C
:100C6000C8B10EE00021681E05E0235C625C63549D
:100C70002254401E491C8142F7DBAB46A81B401E94
:100C80000990002004F80B000B98099AC0F808801E
:100C9000C0E9002B7AE711264FF0000857E72DE94D
:100CA000F04F88460446D21D22F0070191B0D1E9E9
:100CB0000001CDE90A0103F069FC02460B98C00F60
:100CC00001D02D2007E02068810701D52B2002E00C
:100CD000202101EAC000032A099001D0072A05DB80
:100CE00003464146204600F011FB0BE120788006C8
:100CF00001D5E06900E00620B8F1650F814606D015
:100D0000B8F1660F18D0B8F1670F70D131E000204C
:100D1000B9F1110F009001DB112301E009F101038A
:100D20000AAA01A90CA8FFF7E2FEDDE90C70002673
:100D300009F10105834647E001204B4600904FF042
:100D400000470AAA01A90CA8FFF7D1FEDDE90DB002
:100D50000C995D46002610B909F101000D18B9EB98
:100D6000050003D4C0F1FF3609F10105A5EB090028
:100D70002BE0B9F1010F01DA4FF001090020B9F1C0
:100D8000110F0090484601DD112300E003460AAA36
:100D900001A90CA8FFF7ABFEDDE90C704D4600265B
:100DA0008346207800070AD4AB4500DA5D4601A8E7
:100DB000012D04DD411911F8011C302907D04F45E0
:100DC00002DA17F1040F04DA012082460FE06D1EEB
:100DD000EEE7002F02DCED1B3E4403E0781CA84246
:100DE00000DD7D1CB81B00F1010A4FF000472078A0
:100DF000000703D4AA4501DB4FF0FF3A0021B7F109
:100E0000004F0DF143088DF8431024D002202B230E
:100E1000002F01DA7F422D230A21021EA0F10100DA
:100E200000DC5FB197FBF1FC97FBF1F201FB1C7C4E
:100E300017460CF1300C08F801CDEEE7A8F10100DF
:100E400003702188090501D5452100E06521A0F145
:100E5000010800F8011C09980FA9A1EB0807FF1D64
:100E600000B10120411901EBEA70A1693844081A68
:100E7000401EA0612078C00602D42046FFF744FA45
:100E8000099828B1D4E901219047206A401C2062CA
:100E90002078C00622D52046FFF736FA1EE0002E45
:100EA00004DBB34502DD01A8805D00E03020D4E919
:100EB00001219047206A401C2062761CAAF10100A3
:100EC0005FEA000A0AD100F01DFAC0680168405CC0
:100ED000D4E901219047206A401C2062281EA5F118
:100EE0000105DCDC07E0D4E9012118F8010B90478B
:100EF000206A401C2062381EA7F10107F3DC20465F
:100F0000FFF718FA032011B041E600002DE9F04F79
:100F100004460D46D21D22F0070089B0D0E90097A3
:100F20004846394603F032FB0246F80F01D02D2324
:100F300007E02068810701D52B2302E0202101EA88
:100F4000C0038DF820300BB1012000E00020032AFF
:100F5000824601D0072A04DB2946204600F0D6F954
:100F60003FE12078800601D40D2500E0E569C7F354
:100F70000A560D2D49DA00214FEA175B08464FF05B
:100F80000000002F00F4400007DA00EB80004FF46F
:100F9000400100EBD07001EA60008115012901DDFC
:100FA0004FF0FF3100224FEA850CBCF1180F06D339
:100FB0001346ACF118004FF08052C24003E04FF4EA
:100FC000801323FA0CF30CF10C0CBCF1200F04D3AA
:100FD000ACF1200C09FA0CF001E007FA0CF0002942
:100FE0004FF0004801DD18B90FE00ED140450CD399
:100FF00019EB02095F4121B9404502D19F4329EA1B
:101000000209BBEB175F00D0761C2088000502D5D3
:101010007B48784402E07A487844193808AA30239B
:1010200002F80A30037C0AF10101002E0AF1020ADB
:1010300053546A4602DC4FF0300101E04FF03101B9
:101040004FF001088DF8001002D0A6F2FF3603E041
:1010500059EA470100D06B4E002D02DC21780907C8
:1010600004D54FF002082E218DF80110C44600214E
:101070000BE0C7F303433F01C35C491C6D1E02F83C
:101080000830052908F1010801DA002DF1DC002102
:101090000CE000EB1973491C1B786D1E082902F83F
:1010A00008304FEA091908F1010801DA002DF0DCD7
:1010B00021688B0602D516E0A8F10108E04505DDA0
:1010C00002EB080313F8013C302BF5D0B8F1000F08
:1010D00009DD02EB080313F8013C2E2B03D10907AD
:1010E00001D4A8F10108002D05DD3E2102F8081009
:1010F0006D1E08F10108407C002E02F8080008F17E
:10110000010804DA2D20764202F8080002E02B20C4
:1011100002F808000A214FF47A70864208F10108AB
:101120000BDB96FBF0F3303302F8083096FBF0F35C
:1011300008F1010800FB136601E0642E0CDB64205B
:1011400096FBF0F3303302F8083096FBF0F308F129
:10115000010800FB136601E00A2E06DB96FBF1F0A6
:10116000303002F8080008F1010896FBF1F001FBAD
:101170001060303002F80800A16908F1010808EB9E
:10118000050202EB0A00081AA0612078C00602D40A
:101190002046FFF7B9F8216A08AE01EB0A00206289
:1011A00004E0D4E9012116F8010B9047BAF1010AD5
:1011B000F7D22078C00602D52046FFF7A5F86E4684
:1011C00009E016F8010B3E280FD0D4E90121904721
:1011D000206A401C2062B8F10108F2D22046FFF7D5
:1011E000A9F809B00320BDE8F08F206A28442062E6
:1011F00003E0D4E90121302090476D1EEBD3F8E7DE
:101200006536000002FCFFFF10B5436913B1AFF370
:10121000008001E0FFF76BFA012010BD127800F1A9
:1012200024010A7000224A700122EDE711684FF094
:10123000FF32E9E710B5436913B1AFF3008001E075
:10124000FFF70AFB012010BD128800F124018284FF
:101250000022C2840122EDE711684FF0FF32E9E776
:101260002DE9F04116460C46054600F043F80368A8
:1012700093F80101012807D0FF2C12D8185D80B126
:1012800001202C70BDE8F081D3F8070132462146D9
:1012900003F20713C7182846BC46BDE8F0410023F7
:1012A00060474FF0FF30EDE7754600F0EBF8AE46D3
:1012B00005006946534620F00700854618B020B562
:1012C000FEF7FEFFBDE820404FF000064FF000079C
:1012D0004FF000084FF0000BAC46ACE8C009ACE89A
:1012E000C009ACE8C009ACE8C00921F007018D468F
:1012F0007047000010B500F005F8001D10BD00BFDC
:10130000F132000000487047300000202DE9F04124
:101310001F46044603260168072A01F4006004DB27
:1013200008B116A505E016A503E008B115A500E073
:1013300015A521F010002060A069C01EA0610FB1AA
:10134000401EA0612046FEF7DFFF4FB1D4E9012126
:1013500038469047206A401C2062C01C206206E08C
:10136000206AFAE7D4E9012115F8010B9047761EAF
:10137000F8D22046FEF7DEFFBDE8F0814E414E0078
:101380006E616E00494E4600696E66002DE9F047B9
:10139000814616468AB0354878440DC88DE80D0060
:1013A00032487844801C03AC0DC884E80D0041F637
:1013B0009B300844372190FBF1F290FBF1F5A5F149
:1013C000800501FB12041B3C02D56442012000E0B1
:1013D0000020DFF898A080460027FA44AAF1BE0A50
:1013E0000EE0E0070AD03246684607EB47010123CA
:1013F0000AEB810102F093FF8DE8070064107F1C67
:10140000002CEED1194F7F44AE3F19E0E80715D00C
:1014100007EB04100DF1180A90E80E008AE80E00A0
:10142000C068F04201D1981908903246012306A9FC
:1014300003A802F074FF03AB83E807006D10641C7F
:10144000002DE3D14FF0010332466946B8F1000F99
:1014500003A802D002F04EFF01E002F060FFC9E9EC
:101460000001C9F808200AB0BDE8F0877033000019
:1014700010B50446AFF300802046BDE81040FEF7EB
:101480000ABF000000487047100000204FF0013CE8
:1014900050F8042B51F8043B9A4221D1A2EB0C03E3
:1014A000934313EACC1317D150F8042B51F8043BA3
:1014B0009A4215D1A2EB0C03934313EACC130BD140
:1014C00050F8042B51F8043B9A4209D1A2EB0C03CB
:1014D000934313EACC13DBD04FF00000704700BFFA
:1014E000D01A01BAB1FA81F101F0180122FA01F023
:1014F000CB40DBB2C0B2C01AC1F120012CFA01F31B
:10150000D11A914311EAC311E6D17047014918205D
:10151000ABBEFEE72600020070470000FEE70000B9
:1015200040F2C400C2F2000000F0B6B870470000FC
:10153000014690F82100022813D10868D1E90FC3B1
:10154000026822F00E020260026822F001020260CC
:10155000012000FA03F2CCF8042081F821000020D9
:1015600002E0042088630120002281F820207047D7
:1015700090F82110022927D1026840F2040C136868
:10158000C4F2020C23F00E03136013680CF17C010B
:101590008A4223F0010111601AD940F20841C4F2D5
:1015A00002018A424ED040F21C41C4F202018A423A
:1015B00041D040F23041C4F202018A4246D14FF498
:1015C0008073CCF8003457E0042181630120704718
:1015D0004321C4F202018A420EDD6B21C4F20201F2
:1015E0008A421BDC4421C4F202018A423BD05821CA
:1015F000C4F202018A4222E00821C4F202018A42B6
:101600002FD01C21C4F202018A4232D03021C4F210
:1016100002018A4213D14FF480722BE06C21C4F294
:1016200002018A4222D08021C4F202018A4206D1FC
:101630004FF080721EE01023CCF800341CE04FF411
:10164000803217E00123CCF8003415E00CF58861F6
:101650004FF480338A4208BF4FF48053CCF80034F3
:101660000AE0012206E04FF4805203E04FF48012BA
:1016700000E01022CCF80020012180F82110416BFD
:101680000022002980F8202004BF0020704780B588
:101690008847002080BD000010B5D0E90FE3D0F8E6
:1016A00000C0DEF80020DCF80010DA4054072DD529
:1016B00011F004042AD0DCF80010890605D4DCF807
:1016C000001021F00401CCF800100422C4F2020240
:1016D00002F17C018C4561D940F20841C4F202015B
:1016E0008C4500F0A98040F21C41C4F202018C45F7
:1016F00000F09B8040F23041C4F202018C4540F082
:101700009F804FF48061C2F80014DFE094072ED56B
:1017100011F002042BD0DCF80010890608D4DCF8A4
:10172000001021F00A01CCF80010012180F82110EE
:101730000422C4F2020202F17C018C4542D940F23B
:101740000841C4F202018C4500F0AB8040F21C411C
:10175000C4F202018C4500F09D8040F23041C4F299
:1017600002018C4540F0A5804FF40071A9E01207FA
:1017700040F1C18011F0080108BF10BDDCF8001075
:1017800021F00E01CCF80010012101FA03F2CEF88D
:101790000420816380F82110016BA7E04321C4F28B
:1017A00002018C4522DD6B21C4F202018C452FDC45
:1017B0004421C4F202018C4575D05821C4F20201C3
:1017C0008C4536E04321C4F202018C4543DD6B2198
:1017D000C4F202018C4550DC4421C4F202018C4564
:1017E0007BD05821C4F202018C4557E00821C4F295
:1017F00002018C4550D01C21C4F202018C4563D0FB
:101800003021C4F202018C4513D14FF480615CE0B9
:101810006C21C4F202018C4548D08021C4F202013F
:101820008C4506D14FF080614FE04021C2F8001492
:101830004CE04FF4802148E00421C2F8001445E058
:1018400002F588634FF480219C4508BF4FF4804126
:10185000C2F800143AE00821C4F202018C453AD0E3
:101860001C21C4F202018C453DD03021C4F202019A
:101870008C4513D14FF4007136E06C21C4F20201A3
:101880008C452DD08021C4F202018C4506D14FF049
:10189000007129E0202114E0042116E04FF400310A
:1018A00022E002210DE04FF480410EE04FF4800170
:1018B0000BE002F588634FF400319C4508BF4FF4FC
:1018C0000051C2F8001410E040211160C16A91B1CA
:1018D000BDE810400847022106E04FF4005103E044
:1018E0004FF4001100E020211160816A00220029DC
:1018F00080F82020ECD110BD014600284FF00100F7
:1019000008BF70472DE9F04740F2000CC4F2020C0A
:101910000A684FF6F8330CF5816ECBF6FD7372450D
:1019200038BF03F5806303EB020E4CF6CD43CCF6D3
:10193000CC43AEFB033E0CF580636FF00304D1E9AA
:10194000019AD1F80C803CBF0023C4F2020304EAE0
:101950009E04C1E90F34022381F82130136843F655
:10196000F074A34301F1100743EA0903F0CF43EAFF
:101970000A0343EA080323432B4333433B431360E7
:1019800000228A6381F8210081F820200020BDE830
:10199000F047704790F820C0BCF1010F04BF02204F
:1019A0007047F0B54FF0010E80F820E090F821C0AC
:1019B000BCF1010F23D14FF0020C80F821C04FF091
:1019C000000CC0F838C0D0E900C4C56AC66BDCF8AA
:1019D0000070102C27F00107CCF80070006C0EFA94
:1019E00000F070600846CCF8043004BF10460A4688
:1019F000CCF80800CCF80C2035B10E200BE000210B
:101A000080F820100220F0BDDCF8000020F0040077
:101A1000CCF800000A20DCF800100843CCF80000E5
:101A2000DCF8000040F00100CCF800000020F0BD20
:101A30002DE9F04F82B00E68002E00F0E380A0F197
:101A4000804241F6004540F20043A2F58432C4F2E0
:101A500001050624C4F201034FEAB227A84208BFD9
:101A600005244FF0000E4FF001080F254FF0000A3B
:101A70004FF0000B052F38BF4FEAB224009408E066
:101A80000E680AF1010A36FA0AF20EF1040E00F0AD
:101A9000B98008FA0AFC16EA0C09F1D04E684FF634
:101AA000FF72C1F21002964210DC122E50D8DFE80D
:101AB00006F0330A48454F4F4F4F4F4F4F4F4F4F50
:101AC0004F4F4F414C00D1F80CB041E04FF6FF7240
:101AD000C1F2210296420FDC0022C1F211029642AD
:101AE0001AD00022C1F21202964215D00022C1F291
:101AF0002102964210D02BE00022C1F2220296422F
:101B00000AD00022C1F23102964205D00022C1F271
:101B1000320296421CD100BF8A6842B1012A14BF2A
:101B2000C0F814C0C0F810C04FF0080B10E04FF020
:101B3000040B0DE0CA6802F1040B09E04FF0000B42
:101B400006E0CA6802F1080B02E0CA6802F10C0B59
:101B500002467446B9F5807F24BF0432203C1668E3
:101B600005FA04F726EA07070BFA04F6374317606D
:101B7000CA79D2067FF584AF41F21807C4F2020792
:101B80003A684FF6084542F001023A603A68CFF6EB
:101B9000FF7502F001020192019A2AF003021A4431
:101BA0000F2457590EF00C06B440A743009C04FACA
:101BB00006F6374357514E6840F20C44F2029A68D9
:101BC00054BF22EA090242EA0902C4F201049A60FF
:101BD0002268B70254BF22EA090242EA09022260DF
:101BE0005A68B70354BF22EA090242EA09025A605E
:101BF0000F251A68F70354BF22EA090242EA0902D4
:101C00001A603DE702B0BDE8F08F0000002A08BF6F
:101C1000090401617047000040F26010C2F2000048
:101C20000068704740F2040040F26011C2F2000008
:101C3000C2F2000100780A68104408607047000092
:101C400080B542F20000C4F20200016841F01001C8
:101C50000160032000F070F80F2000F005F800F09C
:101C60002BF8002080BD0000B0B540F20402C2F2A3
:101C7000000240F200011278C2F200014FF47A73C0
:101C80000968B3FBF2F20446B1FBF2F1084600F03A
:101C9000D1FC0F2C4FF001050CD858B94FF0FF3094
:101CA00021460022002500F01BF840F20800C2F295
:101CB000000004602846B0BD70470000002848BFFF
:101CC000704700F01F01012202FA01F11C2202EA12
:101CD000D0004EF20012CEF2000281507047000098
:101CE00010B54EF60C5CCEF2000CDCF80030C3F3FD
:101CF000022E8EF00704042C28BF0424BEF1030337
:101D00004FF0FF3E0EFA04F438BF0023A143994080
:101D10000EFA03F39A43114300F1604200F00F03FF
:101D2000090102F56442043B6344002848BF03F103
:101D30000C02117010BD00004EF60C51CEF20001E5
:101D40000A684FF6FF031A4060F30A2242F08060EF
:101D500040F0FD7008607047002804BF0120704704
:101D60002DE9F04381B042F20008C4F202080446B3
:101D7000D8F800000D4600F0070081420CD9D8F8D1
:101D8000000020F007002843C8F80000D8F8000041
:101D900000F00700A8426BD1206841F204098107D6
:101DA000C4F2020917D5410705D5D9F8001041F44E
:101DB000E061C9F80010010705D5D9F8001041F419
:101DC0006051C9F80010D9F80010A26821F0F001A4
:101DD0001143C9F80010C00741D1D8F8000000F045
:101DE000070085420CD2D8F8000020F007002843F5
:101DF000C8F80000D8F8000000F00700A84237D16A
:101E00002068410707D5D9F80010E26821F4E061A5
:101E10001143C9F80010000708D5D9F8000021695E
:101E200020F4605040EAC100C9F80000D9F8002051
:101E300002F00C00082841F20020C0F27A0049D1DB
:101E400044F23E73C2F38341C0F60003595CD203EF
:101E500034D440F60010C0F23D0048433AE06068D8
:101E600059F8041C022807D0012824D1890305D47D
:101E7000012001B0BDE8F0838901F9D5D9F800103F
:101E800021F003010843C9F80000FFF7C5FE06462C
:101E900041F28837D9F80000616800F00C00B0EB1F
:101EA000810F9AD0FFF7B8FE801BB842F2D9032009
:101EB00001B0BDE8F0838907DAD5DFE7D9F8002063
:101EC00044F23C73C2F34042C0F600039A5C4843BC
:101ED000B0FBF2F0D9F8001044F22472C1F3031100
:101EE000C0F60002515C40F2000220FA01F140F21B
:101EF0000800C2F200000068C2F200021160FFF7A1
:101F0000B3FE002001B0BDE8F083000040F2000005
:101F100041F20401C2F20000C4F202010068096843
:101F200044F23472C1F30221C0F60002515CC84091
:101F30007047000040F2000041F20401C2F20000CC
:101F4000C4F202010068096844F23472C1F3C2218C
:101F5000C0F60002515CC84070470000002804BF72
:101F6000012070472DE9F04182B00446007841F22B
:101F70000006C007C4F2020647D0706800F00C00EB
:101F8000042808D1306880033FD56068E8BB012091
:101F900002B0BDE8F081706800F00C00082802D1A2
:101FA0007068C003EED4656830682DB1B5F5A02F18
:101FB00009D0B5F5803F0AD020F480303060306819
:101FC00020F4802005E040F480203060306840F448
:101FD00080303060FFF720FE002D054612D000BF94
:101FE0003068800311D4FFF717FE401B6428F7D92F
:101FF00016E100BFFFF710FE401B64284FF00300FE
:1020000000F2D88030688003F4D42078800719D596
:10201000706810F00C0F07D0706800F00C000828F2
:1020200027D17068C00324D43068800703D52069A5
:10203000012840F0A6803068616920F0F80040EA8D
:10204000C1003060207800074ED5A06938B3002069
:10205000C4F242200121C0F88014FFF7DDFD0546DF
:10206000706A80072DD4FFF7D7FD401B0228F7D9EF
:10207000D6E02069002840F20000C4F2422000F0BF
:10208000A88001210160FFF7C7FD05463068800781
:10209000D1D4FFF7C1FD401B0228F7D9C0E00020D2
:1020A000C4F242200021C0F88014FFF7B5FD0546B8
:1020B000706A800718D5FFF7AFFD401B0228F7D9DB
:1020C000AEE040F20000C2F20000006844F6D351D6
:1020D000C1F26201A0FB0101480A019000BF019812
:1020E000411E00280191F9D12078400717D4E569F5
:1020F0008DB1706800F00C00082846D1012D40D049
:102100007068216A00F480328A423AD1616A00F430
:102110007010884235D1002002B0BDE8F081F0692E
:102120005FEAC00808D4F06940F08050F061F069BF
:1021300000F080500090009847F20007C4F20007BA
:102140003868C0050FD4386840F480703860FFF7F5
:1021500063FD05463868C00505D4FFF75DFD401BEB
:102160006428F7D95CE0E568306A1DB1052D41D0DF
:10217000012D43D020F001003062306A20F00400CD
:102180003EE0012002B0BDE8F0810027C4F2422702
:1021900000203866FFF740FD022D05460ED100BF36
:1021A0003068800153D5FFF737FD401B02284FF000
:1021B0000300F5D902B0BDE8F08100BF30688001AE
:1021C000A9D5FFF729FD401B02284FF00300F5D9E0
:1021D000F0E700210160FFF71FFD0546306880072A
:1021E0007FF530AFFFF718FD401B02284FF00300CA
:1021F000F4D9DFE740F004003062306A40F00100BB
:102200003062FFF709FD002D054641F2883712D0F4
:10221000306A800712D4FFF7FFFC401BB842F7D9A1
:10222000032002B0BDE8F081FFF7F6FC401BB84286
:102230004FF00300BED8306A8007F5D4B8F1000F24
:102240003FF555AFF06920F08050F0614FE7206A0C
:10225000B0F5803F05D17168A26821F400311143C7
:1022600071607168626A21F47411114308437060EF
:1022700001203866FFF7D0FC044600BF30688001BB
:102280003FF549AFFFF7C8FC001B02284FF00300E1
:10229000F4D98FE770470000002804BF0120704781
:1022A000416A19B100210161142104E04168B1F5CE
:1022B000827F02D01C210022425010B590F85110AC
:1022C00031B9002180F85010044600F045F820464E
:1022D000022180F8511090E80E1002F482720C680E
:1022E00003F4044324F040040C6004691A440CF421
:1022F00000631A4404F0020344691A4404F0010321
:10230000D0F818E002EB030CC2690EF400739C4491
:1023100002F03802036A9444826A03F0800343EABD
:102320000C0302F4005423430B60042303EA1E430E
:102330004B60B2F5005F04BF828D0A61CA6922F466
:102340000062CA6100210122416580F85120BDE888
:102350001040084670470000704700002DE9F0412A
:1023600082B0044690F85000012803D1022002B048
:10237000BDE8F08101201D460F46164684F8500046
:10238000FFF74AFC94F85110012968D18046002FCC
:102390004FF0010018BF002E62D0032084F85100D6
:1023A000002060652763A686E686A063A087E08795
:1023B000A2683146B2F5004FC4E9100008D1206888
:1023C000026822F040020260026842F48042026029
:1023D000A06AB0F5005F08D12068026822F40052BC
:1023E0000260026842F400520260206802685206ED
:1023F00003D4026842F04002026062680139E36877
:10240000B2FA82F2B1FA81F152094909B3F5006FCB
:1024100041EA02012AD131B137F8021BC1602763BA
:10242000E08E0138E086E08E002846D06F1C09E07F
:10243000216B31F8022BC2602163E08E0138E08607
:10244000E08ED0B3206881688907F1D4FFF7E4FB00
:10245000002FF5D0A0EB0800A842F1D32BE002201A
:10246000002184F8501002B0BDE8F08139B139780C
:102470000173206B01302063E08E0138E086E08E2E
:10248000D8B16F1C0BE000BF216B09780173206B82
:1024900001302063E08E0138E086E08E68B120686C
:1024A00081688907F0D4FFF7B7FB002FF5D0A0EBC8
:1024B0000800A842F1D3032026E0A06AB0F5005F2F
:1024C00004D12068016841F48051016020468021D8
:1024D00000222B46CDF8008000F012FC28B1606D80
:1024E00040F02000606520206065A06838B90020B9
:1024F00001902068C1680191806801900198606D29
:1025000008B10120ACE70020012184F85110A7E7B1
:1025100090F85030012B04BF02207047012380F84F
:10252000503090F85130012B55D100294FF0010364
:1025300018BF002A66D070B5032380F851300023FD
:10254000044644F8543F44F8241C24F8202C24F872
:102550001E2C44F81C3C44E9053324F8183C24F8AC
:10256000163C54F84C2CB2F5004F08D102681368A1
:1025700023F040031360136843F480431360826ABE
:10258000B2F5005F08D10268136823F400531360AA
:10259000136843F400531360D0F848C042F6754EF8
:1025A00042F67D4542F65543C0F6000EC0F60005E2
:1025B000C0F6000300260268CCE90A5ECCE90C36BE
:1025C000C38E05460C326046FFF7E4F928B10123BB
:1025D0001021284611E0022314E02C6828462168C7
:1025E000490603D4216841F04001216054F8041FDA
:1025F000002341F020012160022122681143216063
:10260000BDE87040002180F8501018467047000067
:10261000006843F60001C4F20001884218BF704709
:1026200040F27000C2F2000001210170704700000A
:1026300070470000411E0020B0EB116F1CBF01204D
:1026400070474EF21002CEF2000251604EF6235156
:10265000CEF20001F0230B700721906011607047EB
:102660007047000070470000B0B582B001680A688A
:10267000CC684B6902F02F05202D04F0200505D110
:1026800025B102B0BDE8B04000F0B6BB5FEA027C05
:102690001EBF03F0010E04F4907313EB0E0340D140
:1026A000036BD50618D5012B16D114F0100313D0E7
:1026B000002201920A6801924A680192019A4969CE
:1026C000490647D4818DC28DC38D002B18BF91421E
:1026D00040F0108102B0B0BD13062AD514F080037B
:1026E00027D090F84120212AF4D18268B2F5805F8A
:1026F00003D10269002A00F03081026A531C036290
:1027000012784A60C28C013A1304C284E2D1C868CC
:1027100020F08000C860C86840F04000C86002B087
:10272000B0BDD10718BF14F480715CD1510760D4DB
:1027300066E05206CED514F04002CBD0CA6822F033
:102740004002CA60202180F8411002B0BDE8B040CC
:1027500000F076BAC16B0A68526893B2002BB9D008
:10276000858DAB42B6D2C2858969202934D000BF9D
:10277000016851E8031F026821F4807142E80313E5
:10278000002BF5D1016851E8051F026821F0010115
:1027900042E80513002BF5D1016851E8051F0268D6
:1027A00021F0400142E80513002BF5D1202180F8EB
:1027B00042100021016300BF016851E8031F026855
:1027C00021F0100142E80313002BF5D1C16B044640
:1027D0000846FEF7ADFE204602214163818DC28D81
:1027E000891A89B2AFE0416C41F00101416451079F
:1027F00006D5BEF1000F03D0416C41F002014164E7
:10280000910706D5BEF1000F03D0416C41F00401E1
:102810004164BCF1000F06D55EEA050103D0416CAE
:1028200041F008014164416C00293FF453AF910627
:1028300004D51DB1044600F0DFFA2046016849695D
:10284000426C01F0400102F0080289184BD000BF31
:10285000016851E8031F026821F4907142E80313F4
:10286000002BF5D1016851E8051F026821F0010134
:1028700042E80513002BF5D1016B01290AD100BFF5
:10288000016851E8031F026821F0100142E80313B8
:10289000002BF5D1202180F842100021016301684E
:1028A0004969490654D500BF016851E8051F02680F
:1028B00021F0400142E80513002BF5D1C16B00293E
:1028C00046D042F6ED52C0F60002044608464A637E
:1028D000FEF74EFE00283FF4FDAEE06B416B02B008
:1028E000BDE8B04008470446FFF7BCFE0020606426
:1028F00002B0B0BD891A00BF026852E8032F036816
:1029000022F4907243E80325002DF5D1026852E8C5
:10291000052F036822F0010243E80525002DF5D1BB
:10292000202280F842200022026300BF026852E8A1
:10293000032F036822F0100243E80325002DF5D190
:10294000022289B2426302B0BDE8B040FFF788BE00
:1029500002B0BDE8B040FFF785BE026A32F8023B24
:102960006FF35F234B600262CCE60000002804BFD7
:102970000120704710B5044690F8410028B90020A6
:1029800084F84000204600F061F8242084F84100DB
:102990002068D4E90212C36823F40053C3600369BA
:1029A00023F440531A430261D4E904231143C2685B
:1029B000194341F20C639A431143C1604169A26912
:1029C00021F44071114343F60002C4F20102904227
:1029D000416102D0FFF79AFA01E0FFF7ABFAD4E9C0
:1029E0000023192148439900B0FBF1F048F21F5C25
:1029F000C5F2EB1CA0FB0C314FF69C734909C0F6E5
:102A0000FF7301FB0300322303EB0010A0FB0C0358
:102A1000F02000EA531000EB0110C3F34311084407
:102A200090601069202120F490401061506920F0DE
:102A30002A005061D06840F40050D06000206064EB
:102A400084F8411084F84210606310BD70470000A4
:102A500090F84230202B07D100294FF0010318BF16
:102A6000002A04D1184670470223184670470023F5
:102A70000363816222218285C285436480F842100B
:102A8000016921B10168CA6842F48072CA600068B5
:102A9000416941F001014161C16841F02001C1601B
:102AA00018467047006843F60001C4F201018842ED
:102AB00018BF704740F2790C40F27C0040F2780178
:102AC000C2F2000C0123C2F20000C2F20001012296
:102AD0008CF80030FFF7BCBF2DE9F04381B004460D
:102AE00090F84100202809D10E4600294FF001003E
:102AF00018BF002A06D101B0BDE8F083022001B062
:102B0000BDE8F083002060642120994684F84100EC
:102B10001546FFF781F8A584E584A1688046B1F5E4
:102B2000805F02D12069002852D037460026E08C11
:102B3000002842D009F101050AE000BF97B117F85B
:102B4000010B21684860E08C0138E084E08CA0B380
:102B5000206800680006F1D4BDB1B9F1000F0ED1B4
:102B600016E000BF36F8020B21686FF35F20486063
:102B70000027E8E701680906E0D4002DFAD0FFF746
:102B80004BF8A0EB0800484502D82068F2E700BFE8
:102B9000206850E8030F216820F4D07041E8030258
:102BA000002AF5D1206850E8050F216820F00100C7
:102BB00041E80502002AF5D10CE0206800684006D3
:102BC00037D4B9F1000F1FD019F101050ED014E070
:102BD0000027ACE7202084F8410084F84200002060
:102BE00084F84000032001B0BDE8F083206800BFF6
:102BF000016849061DD4002DFAD0FFF70DF8A0EBAF
:102C000008004845F2D900BF206850E8030F21684A
:102C100020F4D07041E80302002AF5D1206850E882
:102C2000050F216820F0010041E80502002AF5D1D6
:102C3000D0E7202084F84100002001B0BDE8F083F7
:102C400070470000FEE70000FEE70000704700004C
:102C500070470000406A01684A6822F003024A6037
:102C6000416D41F010014165012180F85110FFF7DD
:102C700011BB0000406AFFF7DBBC0000B0B582B0BA
:102C8000446A0546FEF7C8FF29680968890631D4F9
:102C90008446206800224168642321F020014160BD
:102CA000416821F00201416020468021CDF800C03A
:102CB00000F026F838B1606D40F020006065606D6E
:102CC00040F020006065A06838B9002001902068BD
:102CD000C16801918068019001980020E086012080
:102CE00084F85100606D28B1204602B0BDE8B040C4
:102CF000FFF7D0BA204602B0BDE8B040FFF788BC6D
:102D00002DE9F04782B00A9C984615460E4681464A
:102D1000FEF782FF201A00EB0804FEF77DFF40F269
:102D20000001C2F200010968C1F3CB316143019196
:102D3000D9F8001089683140891BB1FA81F149093D
:102D40008D4203D1002002B0BDE8F087824608F131
:102D5000010709E0D9F8000080683040801BB0FA14
:102D600080F040098542EDD0002FF3D0FEF754FFEC
:102D7000A0EB0A00A04207D201980199002808BFE1
:102D80000446481E0190E5E7D9E900014268B1F523
:102D9000827F22F0E00242600BD1D9F80810B1F531
:102DA000004F02D0B1F5806F03D1016821F04001DE
:102DB0000160D9F82810B1F5005F07D1016821F44E
:102DC00000510160016841F400510160012089F85F
:102DD0005100002089F85000032002B0BDE8F087C0
:102DE00070470000FEF71EBF70470000406A0021D8
:102DF000C185C184FFF736BC90F84210222918BF64
:102E000070478268B2F5805F02D1016900294AD01B
:102E1000816AB2F5805F07D00AB9026922B10268FF
:102E2000526802F07F0201E0026852680A70816A0B
:102E300001318162C18D01390A04C18500D070471A
:102E40000168CA6822F02002CA60CA6822F480724F
:102E5000CA604A6922F001024A61202180F84210CA
:102E600000214163026B012A18BFFFF71BBE81B02E
:102E7000016300BF016851E8031F026821F01001DF
:102E800042E80313002BF5D101680A68D20606D583
:102E9000002200920A680092496800910099818D91
:102EA00001B0FFF7DDBB0168826A49686FF35F21FB
:102EB00022F8021B8262BDE740F27C00C2F20000F1
:102EC000FFF7D2BBFEE7000040F27401C2F200013E
:102ED0000860704780B54EF2180140F27402CEF2DD
:102EE0000001C2F2000251F804CC126800235043E2
:102EF0004FF47A7200FB02FE086800BF0A68824243
:102F0000FCD003449B1A824228BF63447345104699
:102F100028BF80BDF2E7000010B582B041F2140076
:102F2000C4F20200016840F2C40441F001010160F2
:102F30000068C2F2000400F00100019001985820DE
:102F4000C4F202001021002280234FF4005C84E8C8
:102F50000F002046C4E90422C4E9062CFEF7CCFC8D
:102F600040F20810C2F20000846460620F20002169
:102F70000022FEF7B5FE0F2002B0BDE81040FEF7BC
:102F80009DBE000070B584B041F21800C4F202008A
:102F9000016840F6004441F0080101600168C4F294
:102FA000010401F008010091009901686D4641F0AB
:102FB000400101600068294600F040000090009840
:102FC0002020009001200190022003902046FEF76F
:102FD0002FFD04F5406630462946FEF729FD2046C0
:102FE00020210122FEF712FE304620210122FEF7A9
:102FF0000DFE04B070BD0000FEF722FE4FF4E0109D
:1030000000F046FE4820FFF75FFFFFF7BBFF4FF4DD
:10301000E13000F09BFE00F063F94FF6FF7000F026
:10302000DFF8002000F0DCF844F24E70C0F600003B
:10303000F0214FF48C7200F0EDF800BFFEE70000C5
:103040002DE9F04784B041F21800C4F20200416853
:1030500040F6004A41F4804141604168C4F2010AEF
:1030600001F48041009100990168E84641F00801AF
:1030700001600168012601F00801009100990168D2
:10308000002741F02001016000684FF0030900F0C3
:10309000200000900098082000905046414601967C
:1030A0000297CDF80C90FEF7C3FC50460821012290
:1030B000FEF7ACFD0AF5006502242846414601965C
:1030C0000094CDE90269FEF7B3FC4FF40050009084
:1030D000504641460194CDE90269FEF7A9FC4FF440
:1030E00000400090504641460194CDE90279FEF738
:1030F0009FFC4FF480400090504641460194029658
:10310000FEF796FC28464146CDE90046CDE9026926
:10311000FEF78EFC4FF480500090504641460196D9
:10312000CDE90269FEF784FC40F20816AAF5544086
:10313000C2F200064FF482714FF4007286E88300F9
:10314000C6E9057250464FF480510122C6E9037763
:10315000C6E90777C6E90977F762FEF757FD284603
:1031600004210122FEF752FD284602210122FEF72A
:103170004DFDFFF7D1FE3046FFF78EF810B103A0EA
:1031800000F0B4FD04B0BDE8F08700BF5350492003
:10319000496E6974204572726F720D0A000000005A
:1031A00080B582B08DF8070040F20810C2F200002E
:1031B0000DF1070101224FF4FA73FFF7CFF810B1B8
:1031C00002A000F093FD02B080BD00BF4572726F97
:1031D000725F48616E646C65723232320D0A0000B3
:1031E00070B5044600200021F0224FF48C730025B6
:1031F00000F062FC002600BF204600F00FFDB6F58F
:103200008B7F06F10106F7D9EF2D05F1010528BFE7
:1032100070BDEFE72DE9F04F03AF85B0F02947F817
:10322000140C58D89046B2F58C7F54D88B460020A9
:1032300000215A46434600F03FFC41F20040C4F2F0
:10324000010002210122FEF7E1FC0BEB8B000721BC
:1032500001EB800121F00701ADEB010647F81CDC12
:10326000B546B8F10A0F2BD381004CF6CD4008FBD0
:1032700000F04FEAD0480BEB8B0040F208158000BD
:103280004FF0000AC2F2000589468CB247F8180CCC
:10329000BBF1000F07D057E906104A4601FB0A01AF
:1032A0003046FDF7A3F9286881680906FCD4284652
:1032B00031462246FFF72CF90AF1010AC245E7D14F
:1032C00040F27000C2F2000001780029FCD0002119
:1032D000017057F81CDCA7F10C04A546BDE8F08F7F
:1032E000B0B5FFF7ADFE6420FFF7F4FD40F60044F3
:1032F000C4F20104204620210122FEF787FC64204D
:10330000FFF7E8FD204620210022FEF77FFC642025
:10331000FFF7E0FD204620210122FEF777FC642024
:10332000FFF7D8FD04F50065284602210022FEF7CC
:103330006DFC20464FF480510022FEF767FC3620DA
:10334000FFF72EFF284602210122FEF75FFC2046F0
:103350004FF480510022FEF759FC0020FFF720FFB8
:10336000BDE8B040AFF30080B0B540F60044C4F211
:10337000010404F50065284602210022FEF746FC00
:1033800020464FF480510022FEF740FC3620FFF724
:1033900007FF284602210122FEF738FC20464FF4A1
:1033A00080510022FEF732FC0020FFF7F9FE28468C
:1033B00002210022FEF72AFC20464FF48051002211
:1033C000FEF724FC3A20FFF7EBFE284602210122FB
:1033D000FEF71CFC20464FF480510022FEF716FC3D
:1033E0000520FFF7DDFE284602210022FEF70EFC35
:1033F00020464FF480510022FEF708FCB220FFF770
:10340000CFFE284602210122FEF700FC20464FF4A1
:1034100080510022FEF7FAFB0B20FFF7C1FE284681
:1034200002210122FEF7F2FB20464FF480510022D8
:10343000FEF7ECFB0B20FFF7B3FE2846022101222A
:10344000FEF7E4FB20464FF480510022FEF7DEFB3E
:103450000020FFF7A5FE284602210122FEF7D6FB39
:1034600020464FF480510022FEF7D0FB3320FFF7B7
:1034700097FE284602210122FEF7C8FB20464FF4A2
:1034800080510022FEF7C2FB3520FFF789FE284657
:1034900002210022FEF7BAFB20464FF480510022A1
:1034A000FEF7B4FBB720FFF77BFE2846022101227E
:1034B000FEF7ACFB20464FF480510022FEF7A6FB3E
:1034C0001120FFF76DFE284602210022FEF79EFB29
:1034D00020464FF480510022FEF798FBBB20FFF7F7
:1034E0005FFE284602210122FEF790FB20464FF4A2
:1034F00080510022FEF78AFB3520FFF751FE284657
:1035000002210022FEF782FB20464FF48051002268
:10351000FEF77CFBC020FFF743FE28460221012274
:10352000FEF774FB20464FF480510022FEF76EFB3D
:103530002C20FFF735FE284602210022FEF766FB0D
:1035400020464FF480510022FEF760FBC220FFF7B7
:1035500027FE284602210122FEF758FB20464FF4A1
:1035600080510022FEF752FB0120FFF719FE28468A
:1035700002210022FEF74AFB20464FF48051002230
:10358000FEF744FBC320FFF70BFE28460221012271
:10359000FEF73CFB20464FF480510022FEF736FB3D
:1035A0000D20FFF7FDFD284602210022FEF72EFB2D
:1035B00020464FF480510022FEF728FBC420FFF77D
:1035C000EFFD284602210122FEF720FB20464FF4A2
:1035D00080510022FEF71AFB2020FFF7E1FD28466C
:1035E00002210022FEF712FB20464FF480510022F8
:1035F000FEF70CFBC620FFF7D3FD2846022101226F
:10360000FEF704FB20464FF480510022FEF7FEFA3D
:103610001320FFF7C5FD284602210022FEF7F6FA27
:1036200020464FF480510022FEF7F0FAD020FFF739
:10363000B7FD284602210122FEF7E8FA20464FF4A2
:1036400080510022FEF7E2FAA420FFF7A9FD2846E8
:1036500002210122FEF7DAFA20464FF480510022BF
:10366000FEF7D4FAA120FFF79BFD28460221002295
:10367000FEF7CCFA20464FF480510022FEF7C6FA3E
:10368000D620FFF78DFD284602210122FEF7BEFA63
:1036900020464FF480510022FEF7B8FAA120FFF730
:1036A0007FFD284602210022FEF7B0FA20464FF4A3
:1036B00080510022FEF7AAFAE020FFF771FD2846AC
:1036C00002210122FEF7A2FA20464FF48051002287
:1036D000FEF79CFAF020FFF763FD28460221012245
:1036E000FEF794FA20464FF480510022FEF78EFA3E
:1036F0000620FFF755FD284602210122FEF786FA33
:1037000020464FF480510022FEF780FA0B20FFF78D
:1037100047FD284602210122FEF778FA20464FF4A1
:1037200080510022FEF772FA0A20FFF739FD284681
:1037300002210122FEF76AFA20464FF4805100224E
:10374000FEF764FA0920FFF72BFD2846022101222B
:10375000FEF75CFA20464FF480510022FEF756FA3D
:103760002620FFF71DFD284602210122FEF74EFA12
:1037700020464FF480510022FEF748FA2920FFF737
:103780000FFD284602210122FEF740FA20464FF4A1
:1037900080510022FEF73AFA3320FFF701FD284658
:1037A00002210122FEF732FA20464FF48051002216
:1037B000FEF72CFA4120FFF7F3FC284602210122F4
:1037C000FEF724FA20464FF480510022FEF71EFA3D
:1037D0001820FFF7E5FC284602210122FEF716FA21
:1037E00020464FF480510022FEF710FA1620FFF712
:1037F000D7FC284602210122FEF708FA20464FF4A2
:1038000080510022FEF702FA1520FFF7C9FC284676
:1038100002210122FEF7FAF920464FF480510022DE
:10382000FEF7F4F92920FFF7BBFC2846022101220C
:10383000FEF7ECF920464FF480510022FEF7E6F93E
:103840002D20FFF7ADFC284602210022FEF7DEF90D
:1038500020464FF480510022FEF7D8F9E120FFF70F
:103860009FFC284602210122FEF7D0F920464FF4A2
:1038700080510022FEF7CAF9F020FFF791FC28469C
:1038800002210122FEF7C2F920464FF480510022A6
:10389000FEF7BCF90420FFF783FC28460221012231
:1038A000FEF7B4F920464FF480510022FEF7AEF93E
:1038B0000820FFF775FC284602210122FEF7A6F931
:1038C00020464FF480510022FEF7A0F90820FFF7B0
:1038D00067FC284602210122FEF798F920464FF4A2
:1038E00080510022FEF792F90720FFF759FC284685
:1038F00002210122FEF78AF920464FF4805100226E
:10390000FEF784F90320FFF74BFC28460221012231
:10391000FEF77CF920464FF480510022FEF776F93D
:103920002820FFF73DFC284602210122FEF76EF910
:1039300020464FF480510022FEF768F93220FFF74D
:103940002FFC284602210122FEF760F920464FF4A1
:1039500080510022FEF75AF94020FFF721FC28464B
:1039600002210122FEF752F920464FF48051002235
:10397000FEF74CF93B20FFF713FC284602210122F9
:10398000FEF744F920464FF480510022FEF73EF93D
:103990001920FFF705FC284602210122FEF736F91F
:1039A00020464FF480510022FEF730F91820FFF72F
:1039B000F7FB284602210122FEF728F920464FF4A2
:1039C00080510022FEF722F92A20FFF7E9FB284662
:1039D00002210122FEF71AF920464FF480510022FD
:1039E000FEF714F92E20FFF7DBFB28460221002208
:1039F000FEF70CF920464FF480510022FEF706F93D
:103A0000E420FFF7CDFB284602210122FEF7FEF855
:103A100020464FF480510022FEF7F8F82520FFF7EA
:103A2000BFFB284602210122FEF7F0F820464FF4A2
:103A300080510022FEF7EAF80020FFF7B1FB28468C
:103A400002210122FEF7E2F820464FF480510022C5
:103A5000FEF7DCF80020FFF7A3FB28460221002236
:103A6000FEF7D4F820464FF480510022FEF7CEF83E
:103A70002120FFF795FB284602210022FEF7C6F819
:103A800020464FF480510022FEF7C0F81120FFF7C6
:103A900087FB7820FFF71EFA284602210022FEF756
:103AA000B5F820464FF480510022FEF7AFF82920E8
:103AB000BDE8B040FFF774BB2DE9F04740F6004485
:103AC000C4F2010404F5006592468946074628467B
:103AD000022100229846FEF799F820464FF48051C3
:103AE0000022FEF793F82A20FFF75AFB284602210E
:103AF00001223E0AFEF78AF820464FF48051002248
:103B0000FEF784F83046FFF74BFB284602210122DE
:103B1000FEF77CF820464FF480510022FEF776F83D
:103B2000F8B2FFF73DFB284602210122AAF1010667
:103B3000FEF76CF820464FF480510022FEF766F83D
:103B4000C6F30720FFF72CFB284602210122FEF7CF
:103B50005DF820464FF480510022FEF757F8F0B28E
:103B6000FFF71EFB284602210022FEF74FF82046F1
:103B70004FF480510022FEF749F82B20FFF710FB8D
:103B800028460221012209F11406FEF73FF82046DB
:103B90004FF480510022FEF739F8C6F30720FFF7F3
:103BA000FFFA284602210122FEF730F820464FF4A2
:103BB00080510022FEF72AF8F0B2FFF7F1FA28460A
:103BC0000221012208F11306FEF720F820464FF4E7
:103BD00080510022FEF71AF8C6F30720FFF7E0FA3B
:103BE000284602210122FEF711F820464FF48051A9
:103BF0000022FEF70BF8F0B2FFF7D2FA28460221B6
:103C00000022FEF703F820464FF480510022FDF712
:103C1000FDFF2C20BDE8F047FFF7C2BAF0B581B038
:103C200040F60044C4F2010404F50066054630463F
:103C300002210122FDF7EAFF20464FF480510022C5
:103C4000FDF7E4FF3046022101222F0AFDF7DEFFD7
:103C500020464FF480510022FDF7D8FF3846FFF789
:103C60009FFA304602210122FDF7D0FF20464FF493
:103C700080510022FDF7CAFFE8B2FFF791FA204613
:103C80004FF48051012201B0BDE8F040FDF7BEBF06
:103C9000F0B58FB005AD044628462821FCF7EBFCB3
:103CA0000120002605904FF480300227CDE906065A
:103CB000CDE90C7028460496CDE90266CDE9006690
:103CC0000E94FEF74BF900B1FEE70F20CDE9000797
:103CD0004FF48060CDE90306684602210296FEF7A4
:103CE0003BF800B1FEE70FB0F0BD000083B0F0B5C7
:103CF0009CB0064621A80DF10B040EC021AA204657
:103D000031460192FCF7EEFA9DF80B00C0B140F28B
:103D10007C050027C2F200050DF16F068DF86F00DB
:103D20002846314601224FF47A73FEF7D5FE286803
:103D300001680906FCD50137F8B2205C0028EDD1F6
:103D40001CB0BDE8F04003B0704700002DE9F04121
:103D500084B041F21801C4F202010A6840F600087A
:103D600042F480420A600A68C4F2010802F4804208
:103D70000092009A0A6840F27C0442F004020A6051
:103D80000968C2F2000401F004010091009908F5ED
:103D9000405100270C22C4E900102046C4E90277F4
:103DA000C4E90472A761FEF7E1FD022001904FF41F
:103DB00000706E4600900125404631460395FDF7A0
:103DC00037FE4FF4806000904046314601970295DF
:103DD000FDF72EFE40F27801C2F2000120460122DA
:103DE000FEF736FE25200D210022FDF779FF252064
:103DF000FDF764FF04B0BDE8F0815FEA400C08BF46
:103E000091F0000F4FEA8C234FEAC12243EA51514F
:103E10004FEA1C5018BF00F5F0404FEA300018BFC1
:103E200041F000415FEA6C5C00F02980BCF1FF3F8B
:103E300008BF40F080407047130C06BF12044FF0DB
:103E4000100C4FF0000C130E04BF12020CF1080C02
:103E5000130F04BF12010CF1040C930F04BF920066
:103E60000CF1020CD30F04BF52000CF1010C1146EF
:103E70004FF00002A0F11F00A0EB0C00704711F002
:103E8000004F08BF704731F000413FF4D5AF0B0C35
:103E900006BF09044FF0100C4FF0000C0B0E04BFCE
:103EA00009020CF1080C0B0F04BF09010CF1040C02
:103EB0008B0F04BF89000CF1020CCB0F04BF49002B
:103EC0000CF1010CCCF1200322FA03F341EA0301C7
:103ED00002FA0CF2A0EB0C0000F1010070470000A8
:103EE00023F07F4720F07F4C80EA030000F0004081
:103EF000ACEB070303F57C5303F1FF032DE9804985
:103F000009B44FEA144324EA03484FEA154B25EA63
:103F10000B4E0FF2042606EB13273E7803FB0667D1
:103F2000C7F5000707FB06F64FEAD64606F102067C
:103F30004FEA543707FB066CCCF1005C4FEA1C4794
:103F40002CEA074C0CFB06F507FB06F404EB1546C0
:103F50004FEA961649085FEA320234BF00204FF05C
:103F600000404FEAD13706FB07FC4FEA1C4C0CFB24
:103F70000BF7D21B03FB0CF761EB07010CFB0EF7F1
:103F8000B0EB074072EB17420CFB08F734BFA2EB13
:103F90000742B2EB074261EB17414FEA0C444FEA8C
:103FA000910706FB07FC4FEA1C4C0CFB0BF7B0EB30
:103FB000C74072EB573203FB0CF734BFA2EBC7428A
:103FC000B2EBC74261EB57310CFB0EF7B0EBC70009
:103FD00072EB57720CFB08F734BFA2EBC702B2EBCF
:103FE000C70261EB57714FEA816141EA92114FEAD2
:103FF000826242EA90124FEA806004EBCC04039F95
:104000004FEAD13706FB07FC4FEA1C4C0CFB0BF7C1
:10401000D21B03FB0CF761EB07010CFB0EF7B0EBB7
:10402000074072EB17420CFB08F734BFA2EB0742C4
:10403000B2EB074261EB17414FEA8C5504EB9C242D
:104040004FEA910706FB07FC4FEA1C4C0CFB0BF7F1
:10405000B0EBC74072EB573203FB0CF734BFA2EB57
:10406000C742B2EBC74261EB57310CFB0EF7B0EB26
:10407000C70072EB57720CFB08F734BFA2EBC70204
:10408000B2EBC70261EB57714FEA816141EA9211CD
:104090004FEA826242EA90124FEA806015EB4C25AB
:1040A00044F100044FEAD13706FB07FC4FEA1C4CF1
:1040B0000CFB0BF7D21B03FB0CF761EB07010CFBAE
:1040C0000EF7B0EB074072EB17420CFB08F734BF5A
:1040D000A2EB0742B2EB074261EB17414FEA813195
:1040E00041EA92414FEA823242EA90424FEA8030FE
:1040F0004FEA0C7615EB1C1544F1000448EA034323
:104100004EEA0B484FF0000EB2EB080C71EB0307C0
:1041100024BF624639464EEB0E0E4FF0000B0018DE
:10412000524149414BEB0B0BB2EB080C71EB03070F
:104130007BF1000B24BF624639464EEB0E0E4FF06A
:10414000000B0018524149414BEB0B0BB2EB080C32
:1041500071EB03077BF1000B24BF624639464EEB3F
:104160000E0E51EA020718BF46F0010616EB0E7656
:1041700055F1000254F1000103D5BDE88901BDE805
:104180000088BDE88901BDE80048B619524141EBFD
:104190000101A3F10103704780807F7E7D7C7B7AE3
:1041A0007978777676757473727171706F6E6E6DE3
:1041B0006C6C6B6A6A696868676666656464636389
:1041C00062616160605F5F5E5E5D5D5C5C5B5B5A0F
:1041D0005A5959585857575656555555545453537C
:1041E00052525251515050504F4F4F4E4E4D4D4DD7
:1041F0004C4C4C4B4B4B4A4A4A4949494848484722
:10420000474747464646454545444444444343435F
:1042100043424242424141419C46002B30D4770008
:104220002BD04FEA37071CB503B44FF010004FF006
:104230001001BAF1000F06D0BCF1000FDCBF40F056
:10424000080040F008014FF000000FBCBDE810402E
:104250000BF1010BBBF1010F08BF5FEA170722BF8B
:1042600012F1010211F101014FF0004143F100038D
:1042700000F0004043EA00007047F9D35708D0E748
:1042800046EA06464FEA164613F1400F1FDD13F1CA
:10429000200FDFBF16430A46002120335B42BED009
:1042A000C3F1200746EA06464FEA164602FA07F728
:1042B00046EA070622FA03F2C3F1200701FA07F7DC
:1042C00042EA070221FA03F14FF00003A7E746EAAA
:1042D000020646EA06464FEA164646EA0106BCBF13
:1042E00046EA0646360C4FF000034FF000024FF04E
:1042F000000194E72DE9804C70B49A46934691E80A
:10430000380007C831EA400C48BF34EA430C03D5F3
:10431000FFF7E6FDFFF780FFF0BCBDE8008C2DE95C
:10432000804C70B49A46934691E8380007C810F064
:10433000804F08BF13F0804F03D100F005F8FFF75E
:104340006BFFF0BCBDE8008C20F07F4723F07F4C72
:1043500080EA030000F0004007EB0C03A3F57C5358
:10436000A3F1FE0392F0000F00F0B38095F0000F70
:1043700000F077802DE901494FEA114021EA004819
:104380004FEA144624EA064700FB06FC08FB06F643
:1043900007FB08F818EB06484CEB164C00FB07F738
:1043A00018EB07484CEB17404FEA124B22EA0B4E32
:1043B0004FEA154625EA06470BFB06FC0EFB06F600
:1043C00007FB0EFE1EEB064E4CEB164C0BFB07F7E5
:1043D0001EEB074E4CEB174B18EB0B0840F100009F
:1043E00018EB0E0B58EB000840F100008F1A4FF04D
:1043F00000014FF000063CBFC943661B14BFB5EB7C
:10440000040C00213CBFC943F61B4FEA174427EABE
:1044100004454FEA1C472CEA074C04FB076205FBE6
:1044200007F70CFB05F616EB074642EB174204FBB9
:104430000CFC16EB0C4642EB1C421BEB060658EB41
:10444000020241414EEA8E0E46EA9E0601D5BDE8C3
:104450000189B619524141EB0101A3F10103BDE805
:1044600001894FEA144524EA05464FEA114721EA3B
:10447000074C05FB07F406FB07F70CFB06F111EBF5
:10448000074144EB174405FB0CFC11EB0C4144EBDA
:104490001C444FEA124722EA074C05FB07F206FBD1
:1044A00007F70CFB06F616EB074642EB174205FB37
:1044B0000CFC16EB0C4642EB1C456A1854F100014B
:1044C00048BF7047B619524141EB0101A3F1010306
:1044D000704795F0000F37D04FEA114221EA0246AB
:1044E0004FEA144724EA074C02FB07F106FB07F7E3
:1044F0000CFB06F414EB074441EB174102FB0CFCE8
:1045000014EB0C4441EB1C414FEA154725EA074CDC
:1045100002FB07F506FB07F70CFB06F616EB074652
:1045200045EB174502FB0CFC16EB0C4645EB1C4219
:10453000121951F1000148BF7047B619524141EBC1
:104540000101A3F1010370474FEA144524EA05462F
:104550004FEA114721EA074C05FB07F106FB07F775
:104560000CFB06F212EB074241EB174105FB0CFC7A
:1045700012EB0C4251EB1C414FF0000648BF704754
:10458000921841EB0101A3F101037047490050EA81
:10459000C12018BF04204A0D18BF40F0010040F2AE
:1045A000FF72B2EB515F08BF40F00200012808BF64
:1045B0000520704730380A2801D2012070470020BA
:1045C0007047000010B500290AD00878002807D0ED
:1045D00005487844FCF75AFF002801D0002010BDA0
:1045E0000248784410BD0000A60E02009E0E020094
:1045F00010B500290AD00878002807D0054878446B
:10460000FCF744FF002801D0002010BD0248784488
:1046100010BD0000960E02008E0E0200FCF73FBB9C
:10462000FCF774BC303132333435363738394142D7
:104630004344454640305800303132333435363704
:1046400038396162636465664030780004000008B0
:104650000000000000000002000100001000000047
:1046600000000000000000003031323334353637AE
:104670003839616263646566787000303132333492
:1046800035363738394142434445465850000000DA
:1046900002400000000000A00000000005400000F3
:1046A000000000C8000000000C4000000000409C1A
:1046B00000000000194000000020BCBE0000000007
:1046C00034400000BFC91B8E00000004B54000004C
:1046D000504BCFD06607E2CF010000006C410000D4
:1046E0003E8251AADFEEA73401000000D94200004B
:1046F000DCB5A0E23A301F97FFFFFFFFB445000092
:10470000FD25A0C8E9A3C14FFFFFFFFFFF3F000049
:104710000000008000000000FF3F0000000000805B
:10472000000000000000000000000000010203047F
:104730000607080900000000010203040102020349
:104740000405060708090A0B0C0D0E0F1010511076
:10475000011800F0011BE6FCDF1CDF1CDF1CDF1C66
:10476000DF1CDF1CDF1CDF1CDF1CDF1CDF1CDF1C71
:10477000DF1CDF1CDF1CDF1CDF1CDF1CDF1CDF1C61
:10478000DF1CDF1CDF1CDF1CDF1CDF1CDF1CDF1C51
:10479000DF1CDF1CDF1CDF1CDF1CDF1CDF1CDF1C41
:1047A000DF1CDF1CDF1CDF1CDF1CDF1CDF1CDF1C31
:1047B000DF1CDF1CDF1CDF1CDF1CDF1CDF1CDF1C21
:1047C000DF1CDF1CDF1CDF1CDF1CDF1CDF1CDF1C11
:1047D000DF1CDF1CDF1CDF1CDF1CDF1CDF1CDF1C01
:1047E000DF1CDF1CDF1CDF1CDF1CDF1CDF1CDF1CF1
:1047F000DF1CDF1CDF1CDF1CDF1CDF1CDF1CDF1CE1
:10480000DF1CDF1CDF1CDF1CDF1CDF1CDF1CDF1CD0
:10481000DF1CDF1CDF1CDF1CDF1CDF1CDF1CDF1CC0
:10482000DF1CDF1CDF1CDF1CDF1CDF1CDF1CDF1CB0
:10483000DF1CDF1CDF1CDF1CDF1CDF1CDF1CDF1CA0
:10484000DF1CDF1CDF1CDF1CDF1CDF1CDF1CDF1C90
:10485000DF1CDF1CDF1CDF1CDF1CDF1CDF1CDF1C80
:10486000DF1CDF1CDF1CD6BAC619C619D659DE39C3
:10487000DE59DE9ADEBADE9ADEDBDEFCDF1CDF1CF0
:10488000DF1CDF1CDF1CDF1CDF1CDF1CDF1CDF1C50
:10489000DF1CDF1CDF1CDF1CDF1CDF1CDF1CDF1C40
:1048A000DF1CDF1CDF1CDF1CDF1CDF1CDF1CDF1C30
:1048B000DF1CDF1CDF1CDF1CDF1CDF1CDF1CDF1C20
:1048C000DF1CDF1CDF1CDF1CDF1CDF1CDF1CDF1C10
:1048D000DF1CDF1CDF1CDF1CDF1CDF1CDF1CDF1C00
:1048E000DF1CDF1CDF1CDF1CDF1CDF1CDF1CDF1CF0
:1048F000DF1CDF1CDF1CDF1CDF1CDF1CDF1CDF1CE0
:10490000DF1CDF1CDF1CDF1CDF1CDF1CDF1CDF1CCF
:10491000DF1CDF1CDF1CDF1CDF1CDF1CDF1CDF1CBF
:10492000DF1CDF1CDF1CDF1CDF1CDF1CDF1CDF1CAF
:10493000DF1CDF1CDF1CE6FCDF1CDF1CDF1CDF1CB8
:10494000DF1CDF1CDF1CDF1CDF1CDF1CDF1CDF1C8F
:10495000DF1CDF1CDF1CDF1CDF1CDF1CDF1CDF1C7F
:10496000DF1CDF1CDF1CDF1CDF1CDF1CDF1CDF1C6F
:10497000DF1CDF1CDF1CDF1CDF1CDF1CDF1CDF1C5F
:10498000DF1CDF1CDF1CDF1CDF1CDF1CDF1CDF1C4F
:10499000DF1CDF1CDF1CDF1CDF1CDF1CDF1CDF1C3F
:1049A000DF1CDF1CDF1CDF1CDF1CDF1CDF1CDF1C2F
:1049B000DF1CDF1CDF1CDF1CDF1CDF1CDF1CDF1C1F
:1049C000DF1CDF1CDF1CDF1CDF1CDF1CDF1CDF1C0F
:1049D000DF1CDF1CDF1CDF1CDF1CDF1CDF1CDF1CFF
:1049E000DF1CDF1CDF1CDF1CDF1CDF1CDF1CDF1CEF
:1049F000DF1CDF1CDF1CDF1CDF1CDF1CDF1CDF1CDF
:104A0000DF1CDF1CDF1CDF1CDF1CDF1CDF1CDF1CCE
:104A1000DF1CDF1CDF1CDF1CDF1CDF1CDF1CDF1CBE
:104A2000DF1CDF1CDF1CDF1CDF1CDF1CDF1CDF1CAE
:104A3000DF1CDF1CDF1CDF1CDF1CDEFCDF1CDF1CBF
:104A4000DF1CDF1CDF1CD658B5D8D6BBD639DE3903
:104A5000DE59E6BBDEBADE9ADEDBDEFCDEFCDF1C06
:104A6000DF1CDF1CDF1CDF1CDF1CDF1CDF1CDF1C6E
:104A7000DF1CDF1CDF1CDF1CDF1CDF1CDF1CDF1C5E
:104A8000DF1CDF1CDF1CDF1CDF1CDF1CDF1CDF1C4E
:104A9000DF1CDF1CDF1CDF1CDF1CDF1CDF1CDF1C3E
:104AA000DF1CDF1CDF1CDF1CDF1CDF1CDF1CDF1C2E
:104AB000DF1CDF1CDF1CDF1CDF1CDF1CDF1CDF1C1E
:104AC000DF1CDF1CDF1CDF1CDF1CDF1CDF1CDF1C0E
:104AD000DF1CDF1CDF1CDF1CDF1CDF1CDF1CDF1CFE
:104AE000DF1CDF1CDF1CDF1CDF1CDF1CDF1CDF1CEE
:104AF000DF1CDF1CDF1CDF1CDF1CDF1CDF1CDF1CDE
:104B0000DF1CDF1CDF1CDF1CDF1CDF1CDF1CDF1CCD
:104B1000DF1CDF1CDF1CE6FCDF1CDF1CDF1CDF1CD6
:104B2000DF1CDF1CDF1CDF1CDF1CDF1CDF1CDF1CAD
:104B3000DF1CDF1CDF1CDF1CDF1CDF1CDF1CDF1C9D
:104B4000DF1CDF1CDF1CDF1CDF1CDF1CDF1CDF1C8D
:104B5000DF1CDF1CDF1CDF1CDF1CDF1CDF1CDF1C7D
:104B6000DF1CDF1CDF1CDF1CDF1CDF1CDF1CDF1C6D
:104B7000DF1CDF1CDF1CDF1CDF1CDF1CDF1CDF1C5D
:104B8000DF1CDF1CDF1CDF1CDF1CDF1CDF1CDF1C4D
:104B9000DF1CDF1CDF1CDF1CDF1CDF1CDF1CDF1C3D
:104BA000DF1CDF1CDF1CDF1CDF1CDF1CDF1CDF1C2D
:104BB000DF1CDF1CDF1CDF1CDF1CDF1CDF1CDF1C1D
:104BC000DF1CDF1CDF1CDF1CDF1CDF1CDF1CDF1C0D
:104BD000DF1CDF1CDF1CDF1CDF1CDF1CDF1CDF1CFD
:104BE000DF1CDF1CDF1CDF1CDF1CDF1CDF1CDF1CED
:104BF000DF1CDF1CDF1CDF1CDF1CDF1CDF1CDF1CDD
:104C0000DF1CDF1CDF1CDF1CDF1CDF1CDF1CDF1CCC
:104C1000DF1CDF1CDF1CDF1CDF1CE6FDDF1CDF1CD4
:104C2000DF1CDF1CDF1CE6FCB577C619D619DE38A1
:104C3000DE5AE6FBE6DBDEBBDEFCDEFCDEFCDF1C78
:104C4000DF1CDF1CDF1CDF1CDF1CDF1CDF1CDF1C8C
:104C5000DF1CDF1CDF1CDF1CDF1CDF1CDF1CDF1C7C
:104C6000DF1CDF1CDF1CDF1CDF1CDF1CDF1CDF1C6C
:104C7000DF1CDF1CDF1CDF1CDF1CDF1CDF1CDF1C5C
:104C8000DF1CDF1CDF1CDF1CDF1CDF1CDF1CDF1C4C
:104C9000DF1CDF1CDF1CDF1CDF1CDF1CDF1CDF1C3C
:104CA000DF1CDF1CDF1CDF1CDF1CDF1CDF1CDF1C2C
:104CB000DF1CDF1CDF1CDF1CDF1CDF1CDF1CDF1C1C
:104CC000DF1CDF1CDF1CDF1CDF1CDF1CDF1CDF1C0C
:104CD000DF1CDF1CDF1CDF1CDF1CDF1CDF1CDF1CFC
:104CE000DF1CDF1CDF1CDF1CDF1CDF1CDF1CDF1CEC
:104CF000DF1CDF1CDF1CE6FCDF1CDF1CDF1CDF1CF5
:104D0000DF1CDF1CDF1CDF1CDF1CDF1CDF1CDF1CCB
:104D1000DF1CDF1CDF1CDF1CDF1CDF1CDF1CDF1CBB
:104D2000DF1CDF1CDF1CDF1CDF1CDF1CDF1CDF1CAB
:104D3000DF1CDF1CDF1CDF1CDF1CDF1CDF1CDF1C9B
:104D4000DF1CDF1CDF1CDF1CDF1CDF1CDF1CDF1C8B
:104D5000DF1CDF1CDF1CDF1CDF1CDF1CDF1CDF1C7B
:104D6000DF1CDF1CDF1CDF1CDF1CDF1CDF1CDF1C6B
:104D7000DF1CDF1CDF1CDF1CDF1CDF1CDF1CDF1C5B
:104D8000DF1CDF1CDF1CDF1CDF1CDF1CDF1CDF1C4B
:104D9000DF1CDF1CDF1CDF1CDF1CDF1CDF1CDF1C3B
:104DA000DF1CDF1CDF1CDF1CDF1CDF1CDF1CDF1C2B
:104DB000DF1CDF1CDF1CDF1CDF1CDF1CDF1CDF1C1B
:104DC000DF1CDF1CDF1CDF1CDF1CDF1CDF1CDF1C0B
:104DD000DF1CDF1CDF1CDF1CDF1CDF1CDF1CDF1CFB
:104DE000DF1CDF1CDF1CDF1CDF1CDF1CDF1CDF1CEB
:104DF000DF1CDF1CDF1CDF1CDF1CDF1CDF1CDF1CDB
:104E0000DF1CDF1CDF1CDF1CD679B5D8CDF8D61827
:104E1000DE1ADE9AE6DBDEDBDEFBDEFCDEFCDF1C20
:104E2000DF1CDF1CDF1CDF1CDF1CDF1CDF1CDF1CAA
:104E3000DF1CDF1CDF1CDF1CDF1CDF1CDF1CDF1C9A
:104E4000DF1CDF1CDF1CDF1CDF1CDF1CDF1CDF1C8A
:104E5000DF1CDF1CDF1CDF1CDF1CDF1CDF1CDF1C7A
:104E6000DF1CDF1CDF1CDF1CDF1CDF1CDF1CDF1C6A
:104E7000DF1CDF1CDF1CDF1CDF1CDF1CDF1CDF1C5A
:104E8000DF1CDF1CDF1CDF1CDF1CDF1CDF1CDF1C4A
:104E9000DF1CDF1CDF1CDF1CDF1CDF1CDF1CDF1C3A
:104EA000DF1CDF1CDF1CDF1CDF1CDF1CDF1CDF1C2A
:104EB000DF1CDF1CDF1CDF1CDF1CDF1CDF1CDF1C1A
:104EC000DF1CDF1CDF1CDF1CDF1CDF1CDF1CDF1C0A
:104ED000DF1CDF1CDF1CE6FCDF1CDF1CDF1CDF1C13
:104EE000DF1CDF1CDF1CDF1CDF1CDF1CDF1CDF1CEA
:104EF000DF1CDF1CDF1CDF1CDF1CDF1CDF1CDF1CDA
:104F0000DF1CDF1CDF1CDF1CDF1CDF1CDF1CDF1CC9
:104F1000DF1CDF1CDF1CDF1CDF1CDF1CDF1CDF1CB9
:104F2000DF1CDF1CDF1CDF1CDF1CDF1CDF1CDF1CA9
:104F3000DF1CDF1CDF1CDF1CDF1CDF1CDF1CDF1C99
:104F4000DF1CDF1CDF1CDF1CDF1CDF1CDF1CDF1C89
:104F5000DF1CDF1CDF1CDF1CDF1CDF1CDF1CDF1C79
:104F6000DF1CDF1CDF1CDF1CDF1CDF1CDF1CDF1C69
:104F7000DF1CDF1CDF1CDF1CDF1CDF1CDF1CDF1C59
:104F8000DF1CDF1CDF1CDF1CDF1CDF1CDF1CDF1C49
:104F9000DF1CDF1CDF1CDF1CDF1CDF1CDF1CDF1C39
:104FA000DF1CDF1CDF1CDF1CDF1CDF1CDF1CDF1C29
:104FB000DF1CDF1CDF1CDF1CDF1CDF1CDF1CDF1C19
:104FC000DF1CDF1CDF1CDF1CDF1CDF1CDF1CDF1C09
:104FD000DF1CDF1CDF1CDF1CDF1CDF1CDF1CDF1CF9
:104FE000DF1CDF1CDF1CDF1CC5F7ADB7CDB7DDF85C
:104FF000DE18DE39E6BBDEDBDEFBDEFBDEFCDF1CC3
:10500000DF1CDF1CDF1CDF1CDF1CDF1CDF1CDF1CC8
:10501000DF1CDF1CDF1CDF1CDF1CDF1CDF1CDF1CB8
:10502000DF1CDF1CDF1CDF1CDF1CDF1CDF1CDF1CA8
:10503000DF1CDF1CDF1CDF1CDF1CDF1CDF1CDF1C98
:10504000DF1CDF1CDF1CDF1CDF1CDF1CDF1CDF1C88
:10505000DF1CDF1CDF1CDF1CDF1CDF1CDF1CDF1C78
:10506000DF1CDF1CDF1CDF1CDF1CDF1CDF1CDF1C68
:10507000DF1CDF1CDF1CDF1CDF1CDF1CDF1CDF1C58
:10508000DF1CDF1CDF1CDF1CDF1CDF1CDF1CDF1C48
:10509000DF1CDF1CDF1CDF1CDF1CDF1CDF1CDF1C38
:1050A000DF1CDF1CDF1CDF1CDF1CDF1CDF1CDF1C28
:1050B000DF1CDF1CDF1CE6FCDF1CDF1CDF1CDF1C31
:1050C000DF1CDF1CDF1CDF1CDF1CDF1CDF1CDF1C08
:1050D000DF1CDF1CDF1CDF1CDF1CDF1CDF1CDF1CF8
:1050E000DF1CDF1CDF1CDF1CDF1CDF1CDF1CDF1CE8
:1050F000DF1CDF1CDF1CDF1CDF1CDF1CDF1CDF1CD8
:10510000DF1CDF1CDF1CDF1CDF1CDF1CDF1CDF1CC7
:10511000DF1CDF1CDF1CDF1CDF1CDF1CDF1CDF1CB7
:10512000DF1CDF1CDF1CDF1CDF1CDF1CDF1CDF1CA7
:10513000DF1CDF1CDF1CDF1CDF1CDF1CDF1CDF1C97
:10514000DF1CDF1CDF1CDF1CDF1CDF1CDF1CDF1C87
:10515000DF1CDF1CDF1CDF1CDF1CDF1CDF1CDF1C77
:10516000DF1CDF1CDF1CDF1CDF1CDF1CDF1CDF1C67
:10517000DF1CDF1CDF1CDF1CDF1CDF1CDF1CDF1C57
:10518000DF1CDF1CDF1CDF1CDF1CDF1CDF1CDF1C47
:10519000DF1CDF1CDF1CDF1CDF1CDF1CDF1CDF1C37
:1051A000DF1CDF1CDF1CDF1CDF1CDF1CDF1CDF1C27
:1051B000DF1CDF1CDF1CDF1CDF1CDF1CDF1CDF1C17
:1051C000DF1CDF1CDF1CDF1CBDF8B597BD97D5D8F1
:1051D000DDF8DE18DE5AE6DBDEFBDEFBDEFCDF1C84
:1051E000DF1CDF1CDF1CDF1CDF1CDF1CDF1CDF1CE7
:1051F000DF1CDF1CDF1CDF1CDF1CDF1CDF1CDF1CD7
:10520000DF1CDF1CDF1CDF1CDF1CDF1CDF1CDF1CC6
:10521000DF1CDF1CDF1CDF1CDF1CDF1CDF1CDF1CB6
:10522000DF1CDF1CDF1CDF1CDF1CDF1CDF1CDF1CA6
:10523000DF1CDF1CDF1CDF1CDF1CDF1CDF1CDF1C96
:10524000DF1CDF1CDF1CDF1CDF1CDF1CDF1CDF1C86
:10525000DF1CDF1CDF1CDF1CDF1CDF1CDF1CDF1C76
:10526000DF1CDF1CDF1CDF1CDF1CDF1CDF1CDF1C66
:10527000DF1CDF1CDF1CDF1CDF1CDF1CDF1CDF1C56
:10528000DF1CDF1CDF1CDF1CDF1CDF1CDF1CDF1C46
:10529000DF1CDF1CDF1CE6FCDF1CDF1CDF1CDF1C4F
:1052A000DF1CDF1CDF1CDF1CDF1CDF1CDF1CDF1C26
:1052B000DF1CDF1CDF1CDF1CDF1CDF1CDF1CDF1C16
:1052C000DF1CDF1CDF1CDF1CDF1CDF1CDF1CDF1C06
:1052D000DF1CDF1CDF1CDF1CDF1CDF1CDF1CDF1CF6
:1052E000DF1CDF1CDF1CDF1CDF1CDF1CDF1CDF1CE6
:1052F000DF1CDF1CDF1CDF1CDF1CDF1CDF1CDF1CD6
:10530000DF1CDF1CDF1CDF1CDF1CDF1CDF1CDF1CC5
:10531000DF1CDF1CDF1CDF1CDF1CDF1CDF1CDF1CB5
:10532000DF1CDF1CDF1CDF1CDF1CDF1CDF1CDF1CA5
:10533000DF1CDF1CDF1CDF1CDF1CDF1CDF1CDF1C95
:10534000DF1CDF1CDF1CDF1CDF1CDF1CDF1CDF1C85
:10535000DF1CDF1CDF1CDF1CDF1CDF1CDF1CDF1C75
:10536000DF1CDF1CDF1CDF1CDF1CDF1CDF1CDF1C65
:10537000DF1CDF1CDF1CDF1CDF1CDF1CDF1CDF1C55
:10538000DF1CDF1CDF1CDF1CDF1CDF1CE71CDF1C3D
:10539000DEFCDF1CDF1CDF1CDF1CDF1CDF1CDF1C56
:1053A000DF1CDF1CDF1CDF1CC5D7AD97BD97D5B751
:1053B000DDD7DDF8DE59DEBBDEFBDEFBDEFCE71C05
:1053C000DF1CDF1CDF1CDF1CDF1CDF1CDF1CDF1C05
:1053D000DF1CDF1CDF1CDF1CDF1CDF1CDF1CDF1CF5
:1053E000DF1CDF1CDF1CDF1CDF1CDF1CDF1CDF1CE5
:1053F000DF1CDF1CDF1CDF1CDF1CDF1CDF1CDF1CD5
:10540000DF1CDF1CDF1CDF1CDF1CDF1CDF1CDF1CC4
:10541000DF1CDF1CDF1CDF1CDF1CDF1CDF1CDF1CB4
:10542000DF1CDF1CDF1CDF1CDF1CDF1CDF1CDF1CA4
:10543000DF1CDF1CDF1CDF1CDF1CDF1CDF1CDF1C94
:10544000DF1CDF1CDF1CDF1CDF1CDF1CDF1CDF1C84
:10545000DF1CDF1CDF1CDF1CDF1CDF1CDF1CDF1C74
:10546000DF1CDF1CDF1CDF1CDF1CDF1CDF1CDF1C64
:10547000DF1CDF1CDF1CE6FCDF1CDF1CDF1CDF1C6D
:10548000DF1CDF1CDF1CDF1CDF1CDF1CDF1CDF1C44
:10549000DF1CDF1CDF1CDF1CDF1CDF1CDF1CDF1C34
:1054A000DF1CDF1CDF1CDF1CDF1CDF1CDF1CDF1C24
:1054B000DF1CDF1CDF1CDF1CDF1CDF1CDF1CDF1C14
:1054C000DF1CDF1CDF1CDF1CDF1CDF1CDF1CDF1C04
:1054D000DF1CDF1CDF1CDF1CDF1CDF1CDF1CDF1CF4
:1054E000DF1CDF1CDF1CDF1CDF1CDF1CDF1CDF1CE4
:1054F000DF1CDF1CDF1CDF1CDF1CDF1CDF1CDF1CD4
:10550000DF1CDF1CDF1CDF1CDF1CDF1CDF1CDF1CC3
:10551000DF1CDF1CDF1CDF1CDF1CDF1CDF1CDF1CB3
:10552000DF1CDF1CDF1CDF1CDF1CDF1CDF1CDF1CA3
:10553000DF1CDF1CDF1CDF1CDF1CDF1CDF1CDF1C93
:10554000DF1CDF1CDF1CDF1CDF1CDF1CDF1CDF1C83
:10555000DF1CDF1CDF1CDF1CDF1CDF1CDF1CDF1C73
:10556000DF1CDF1CDF1CDF1CDF1CDF1CE6FCDF1C7C
:10557000DEFCE71CDF1CDF1CDF1CDF1CDF1CDF1C6C
:10558000DF1CDF1CDF1CE71CDEBAAD97BD76D5B78C
:10559000DDD7DDF8DE39DE9BDEDBDEFCDEFCDEFCAB
:1055A000DF1CDF1CDF1CDF1CDF1CDF1CDF1CDF1C23
:1055B000DF1CDF1CDF1CDF1CDF1CDF1CDF1CDF1C13
:1055C000DF1CDF1CDF1CDF1CDF1CDF1CDF1CDF1C03
:1055D000DF1CDF1CDF1CDF1CDF1CDF1CDF1CDF1CF3
:1055E000DF1CDF1CDF1CDF1CDF1CDF1CDF1CDF1CE3
:1055F000DF1CDF1CDF1CDF1CDF1CDF1CDF1CDF1CD3
:10560000DF1CDF1CDF1CDF1CDF1CDF1CDF1CDF1CC2
:10561000DF1CDF1CDF1CDF1CDF1CDF1CDF1CDF1CB2
:10562000DF1CDF1CDF1CDF1CDF1CDF1CDF1CDF1CA2
:10563000DF1CDF1CDF1CDF1CDF1CDF1CDF1CDF1C92
:10564000DF1CDF1CDF1CDF1CDF1CDF1CDF1CDF1C82
:10565000DF1CDF1CDF1CE6FCDF1CDF1CDF1CDF1C8B
:10566000DF1CDF1CDF1CDF1CDF1CDF1CDF1CDF1C62
:10567000DF1CDF1CDF1CDF1CDF1CDF1CDF1CDF1C52
:10568000DF1CDF1CDF1CDF1CDF1CDF1CDF1CDF1C42
:10569000DF1CDF1CDF1CDF1CDF1CDF1CDF1CDF1C32
:1056A000DF1CDF1CDF1CDF1CDF1CDF1CDF1CDF1C22
:1056B000DF1CDF1CDF1CDF1CDF1CDF1CDF1CDF1C12
:1056C000DF1CDF1CDF1CDF1CDF1CDF1CDF1CDF1C02
:1056D000DF1CDF1CDF1CDF1CDF1CDF1CDF1CDF1CF2
:1056E000DF1CDF1CDF1CDF1CDF1CDF1CDF1CDF1CE2
:1056F000DF1CDF1CDF1CDF1CDF1CDF1CDF1CDF1CD2
:10570000DF1CDF1CDF1CDF1CDF1CDF1CDF1CDF1CC1
:10571000DF1CDF1CDF1CDF1CDF1CDF1CDF1CDF1CB1
:10572000DF1CDF1CDF1CDF1CDF1CDF1CDF1CDF1CA1
:10573000DF1CDF1CDF1CDF1CDF1CDF1CDF1CDF1C91
:10574000DF1CDF1CDF1CE6FCDF1CDF1CDF1CDF1C9A
:10575000DF1CDF1CDF1CDF1CDF1CDF1CDEFCE6FCAB
:10576000DEFCDF1CDF1CD6BBBE59A557BD96D5B6E7
:10577000D5B7DDD7DE18DE5ADEDBDEFCDEFCDEFC74
:10578000DF1CDF1CDF1CDF1CDF1CDF1CDF1CDF1C41
:10579000DF1CDF1CDF1CDF1CDF1CDF1CDF1CDF1C31
:1057A000DF1CDF1CDF1CDF1CDF1CDF1CDF1CDF1C21
:1057B000DF1CDF1CDF1CDF1CDF1CDF1CDF1CDF1C11
:1057C000DF1CDF1CDF1CDF1CDF1CDF1CDF1CDF1C01
:1057D000DF1CDF1CDF1CDF1CDF1CDF1CDF1CDF1CF1
:1057E000DF1CDF1CDF1CDF1CDF1CDF1CDF1CDF1CE1
:1057F000DF1CDF1CDF1CDF1CDF1CDF1CDF1CDF1CD1
:10580000DF1CDF1CDF1CDF1CDF1CDF1CDF1CDF1CC0
:10581000DF1CDF1CDF1CDF1CDF1CDF1CDF1CDF1CB0
:10582000DF1CDF1CDF1CDF1CDF1CDF1CDF1CDF1CA0
:10583000DF1CDF1CDF1CE6FCDF1CDF1CDF1CDF1CA9
:10584000DF1CDF1CDF1CDF1CDF1CDF1CDF1CDF1C80
:10585000DF1CDF1CDF1CDF1CDF1CDF1CDF1CDF1C70
:10586000DF1CDF1CDF1CDF1CDF1CDF1CDF1CDF1C60
:10587000DF1CDF1CDF1CDF1CDF1CDF1CDF1CDF1C50
:10588000DF1CDF1CDF1CDF1CDF1CDF1CDF1CDF1C40
:10589000DF1CDF1CDF1CDF1CDF1CDF1CDF1CDF1C30
:1058A000DF1CDF1CDF1CDF1CDF1CDF1CDF1CDF1C20
:1058B000DF1CDF1CDF1CDF1CDF1CDF1CDF1CDF1C10
:1058C000DF1CDF1CDF1CDF1CDF1CDF1CDF1CDF1C00
:1058D000DF1CDF1CDF1CDF1CDF1CDF1CDF1CDF1CF0
:1058E000DF1CDF1CDF1CDF1CDF1CDF1CDF1CDF1CE0
:1058F000DF1CDF1CDF1CDF1CDF1CDF1CDF1CDF1CD0
:10590000DF1CDF1CDF1CDF1CDF1CDF1CDF1CDF1CBF
:10591000DF1CDF1CDF1CDF1CDF1CDF1CDF1CDF1CAF
:10592000DF1CDF1CE73DDF3DDF1CDF1CDF1CDF1C55
:10593000DF1CDF1CDF1CDF1CE71BE71CDEFCDF1CA1
:10594000F79EDF1CDEFCCE7A9D97AD77C576D596A7
:10595000D597D5B7DDF8DE39DEBBDEFCDEFCDEFC3C
:10596000DF1CDF1CDF1CDF1CDF1CDF1CDF1CDF1C5F
:10597000DF1CDF1CDF1CDF1CDF1CDF1CDF1CDF1C4F
:10598000DF1CDF1CDF1CDF1CDF1CDF1CDF1CDF1C3F
:10599000DF1CDF1CDF1CDF1CDF1CDF1CDF1CDF1C2F
:1059A000DF1CDF1CDF1CDF1CDF1CDF1CDF1CDF1C1F
:1059B000DF1CDF1CDF1CDF1CDF1CDF1CDF1CDF1C0F
:1059C000DF1CDF1CDF1CDF1CDF1CDF1CDF1CDF1CFF
:1059D000DF1CDF1CDF1CDF1CDF1CDF1CDF1CDF1CEF
:1059E000DF1CDF1CDF1CDF1CDF1CDF1CDF1CDF1CDF
:1059F000DF1CDF1CDF1CDF1CDF1CDF1CDF1CDF1CCF
:105A0000DF1CDF1CDF1CDF1CDF1CDF1CDF1CDF1CBE
:105A1000DF1CDF1CDF1CE6FCDF1CDF1CDF1CDF1CC7
:105A2000DF1CDF1CDF1CDF1CDF1CDF1CDF1CDF1C9E
:105A3000DF1CDF1CDF1CDF1CDF1CDF1CDF1CDF1C8E
:105A4000DF1CDF1CDF1CDF1CDF1CDF1CDF1CDF1C7E
:105A5000DF1CDF1CDF1CDF1CDF1CDF1CDF1CDF1C6E
:105A6000DF1CDF1CDF1CDF1CDF1CDF1CDF1CDF1C5E
:105A7000DF1CDF1CDF1CDF1CDF1CDF1CDF1CDF1C4E
:105A8000DF1CDF1CDF1CDF1CDF1CDF1CDF1CDF1C3E
:105A9000DF1CDF1CDF1CDF1CDF1CDF1CDF1CDF1C2E
:105AA000DF1CDF1CDF1CDF1CDF1CDF1CDF1CDF1C1E
:105AB000DF1CDF1CDF1CDF1CDF1CDF1CDF1CDF1C0E
:105AC000DF1CDF1CDF1CDF1CDF1CDF1CDF1CDF1CFE
:105AD000DF1CDF1CDF1CDF1CDF1CDF1CDF1CDF1CEE
